{
  "_format": "hh-sol-artifact-1",
  "contractName": "Marketplace",
  "sourceName": "contracts/Marketplace.sol",
  "abi": [
    {
      "inputs": [
        {
          "internalType": "address",
          "name": "trustedForwarder",
          "type": "address"
        },
        {
          "internalType": "address",
          "name": "defaultAdmin",
          "type": "address"
        },
        {
          "internalType": "address",
          "name": "treasury",
          "type": "address"
        },
        {
          "internalType": "address",
          "name": "carNFTAddress",
          "type": "address"
        },
        {
          "internalType": "address payable",
          "name": "escrowAddr",
          "type": "address"
        }
      ],
      "stateMutability": "nonpayable",
      "type": "constructor"
    },
    {
      "anonymous": false,
      "inputs": [
        {
          "indexed": true,
          "internalType": "uint256",
          "name": "listingId",
          "type": "uint256"
        }
      ],
      "name": "ListingCancelled",
      "type": "event"
    },
    {
      "anonymous": false,
      "inputs": [
        {
          "indexed": true,
          "internalType": "uint256",
          "name": "listingId",
          "type": "uint256"
        },
        {
          "indexed": true,
          "internalType": "uint256",
          "name": "tokenId",
          "type": "uint256"
        },
        {
          "indexed": true,
          "internalType": "address",
          "name": "seller",
          "type": "address"
        },
        {
          "indexed": false,
          "internalType": "uint256",
          "name": "price",
          "type": "uint256"
        }
      ],
      "name": "ListingCreated",
      "type": "event"
    },
    {
      "anonymous": false,
      "inputs": [
        {
          "indexed": true,
          "internalType": "uint256",
          "name": "listingId",
          "type": "uint256"
        },
        {
          "indexed": true,
          "internalType": "uint256",
          "name": "tokenId",
          "type": "uint256"
        },
        {
          "indexed": true,
          "internalType": "address",
          "name": "buyer",
          "type": "address"
        },
        {
          "indexed": false,
          "internalType": "address",
          "name": "seller",
          "type": "address"
        },
        {
          "indexed": false,
          "internalType": "uint256",
          "name": "price",
          "type": "uint256"
        }
      ],
      "name": "ListingPurchased",
      "type": "event"
    },
    {
      "anonymous": false,
      "inputs": [
        {
          "indexed": true,
          "internalType": "uint256",
          "name": "listingId",
          "type": "uint256"
        },
        {
          "indexed": false,
          "internalType": "uint256",
          "name": "oldPrice",
          "type": "uint256"
        },
        {
          "indexed": false,
          "internalType": "uint256",
          "name": "newPrice",
          "type": "uint256"
        }
      ],
      "name": "ListingUpdated",
      "type": "event"
    },
    {
      "anonymous": false,
      "inputs": [
        {
          "indexed": false,
          "internalType": "uint256",
          "name": "oldFee",
          "type": "uint256"
        },
        {
          "indexed": false,
          "internalType": "uint256",
          "name": "newFee",
          "type": "uint256"
        }
      ],
      "name": "PlatformFeeUpdated",
      "type": "event"
    },
    {
      "anonymous": false,
      "inputs": [
        {
          "indexed": true,
          "internalType": "bytes32",
          "name": "role",
          "type": "bytes32"
        },
        {
          "indexed": true,
          "internalType": "bytes32",
          "name": "previousAdminRole",
          "type": "bytes32"
        },
        {
          "indexed": true,
          "internalType": "bytes32",
          "name": "newAdminRole",
          "type": "bytes32"
        }
      ],
      "name": "RoleAdminChanged",
      "type": "event"
    },
    {
      "anonymous": false,
      "inputs": [
        {
          "indexed": true,
          "internalType": "bytes32",
          "name": "role",
          "type": "bytes32"
        },
        {
          "indexed": true,
          "internalType": "address",
          "name": "account",
          "type": "address"
        },
        {
          "indexed": true,
          "internalType": "address",
          "name": "sender",
          "type": "address"
        }
      ],
      "name": "RoleGranted",
      "type": "event"
    },
    {
      "anonymous": false,
      "inputs": [
        {
          "indexed": true,
          "internalType": "bytes32",
          "name": "role",
          "type": "bytes32"
        },
        {
          "indexed": true,
          "internalType": "address",
          "name": "account",
          "type": "address"
        },
        {
          "indexed": true,
          "internalType": "address",
          "name": "sender",
          "type": "address"
        }
      ],
      "name": "RoleRevoked",
      "type": "event"
    },
    {
      "anonymous": false,
      "inputs": [
        {
          "indexed": true,
          "internalType": "address",
          "name": "oldTreasury",
          "type": "address"
        },
        {
          "indexed": true,
          "internalType": "address",
          "name": "newTreasury",
          "type": "address"
        }
      ],
      "name": "TreasuryUpdated",
      "type": "event"
    },
    {
      "anonymous": false,
      "inputs": [
        {
          "indexed": true,
          "internalType": "address",
          "name": "oldForwarder",
          "type": "address"
        },
        {
          "indexed": true,
          "internalType": "address",
          "name": "newForwarder",
          "type": "address"
        }
      ],
      "name": "TrustedForwarderUpdated",
      "type": "event"
    },
    {
      "inputs": [],
      "name": "ADMIN_ROLE",
      "outputs": [
        {
          "internalType": "bytes32",
          "name": "",
          "type": "bytes32"
        }
      ],
      "stateMutability": "view",
      "type": "function"
    },
    {
      "inputs": [],
      "name": "DEFAULT_ADMIN_ROLE",
      "outputs": [
        {
          "internalType": "bytes32",
          "name": "",
          "type": "bytes32"
        }
      ],
      "stateMutability": "view",
      "type": "function"
    },
    {
      "inputs": [],
      "name": "MAX_FEE_BPS",
      "outputs": [
        {
          "internalType": "uint256",
          "name": "",
          "type": "uint256"
        }
      ],
      "stateMutability": "view",
      "type": "function"
    },
    {
      "inputs": [],
      "name": "PLATFORM_FEE_BPS",
      "outputs": [
        {
          "internalType": "uint256",
          "name": "",
          "type": "uint256"
        }
      ],
      "stateMutability": "view",
      "type": "function"
    },
    {
      "inputs": [],
      "name": "TREASURY_ROLE",
      "outputs": [
        {
          "internalType": "bytes32",
          "name": "",
          "type": "bytes32"
        }
      ],
      "stateMutability": "view",
      "type": "function"
    },
    {
      "inputs": [
        {
          "internalType": "uint256",
          "name": "listingId",
          "type": "uint256"
        }
      ],
      "name": "cancelListing",
      "outputs": [],
      "stateMutability": "nonpayable",
      "type": "function"
    },
    {
      "inputs": [],
      "name": "carNFT",
      "outputs": [
        {
          "internalType": "contract CarNFT",
          "name": "",
          "type": "address"
        }
      ],
      "stateMutability": "view",
      "type": "function"
    },
    {
      "inputs": [
        {
          "internalType": "uint256",
          "name": "tokenId",
          "type": "uint256"
        },
        {
          "internalType": "uint256",
          "name": "price",
          "type": "uint256"
        }
      ],
      "name": "createListing",
      "outputs": [
        {
          "internalType": "uint256",
          "name": "",
          "type": "uint256"
        }
      ],
      "stateMutability": "nonpayable",
      "type": "function"
    },
    {
      "inputs": [],
      "name": "emergencyWithdraw",
      "outputs": [],
      "stateMutability": "nonpayable",
      "type": "function"
    },
    {
      "inputs": [],
      "name": "escrowAddress",
      "outputs": [
        {
          "internalType": "address payable",
          "name": "",
          "type": "address"
        }
      ],
      "stateMutability": "view",
      "type": "function"
    },
    {
      "inputs": [],
      "name": "getActiveListings",
      "outputs": [
        {
          "internalType": "uint256[]",
          "name": "",
          "type": "uint256[]"
        }
      ],
      "stateMutability": "view",
      "type": "function"
    },
    {
      "inputs": [
        {
          "internalType": "uint256",
          "name": "listingId",
          "type": "uint256"
        }
      ],
      "name": "getListing",
      "outputs": [
        {
          "components": [
            {
              "internalType": "uint256",
              "name": "listingId",
              "type": "uint256"
            },
            {
              "internalType": "uint256",
              "name": "tokenId",
              "type": "uint256"
            },
            {
              "internalType": "address",
              "name": "seller",
              "type": "address"
            },
            {
              "internalType": "uint256",
              "name": "price",
              "type": "uint256"
            },
            {
              "internalType": "bool",
              "name": "active",
              "type": "bool"
            },
            {
              "internalType": "uint256",
              "name": "createdAt",
              "type": "uint256"
            }
          ],
          "internalType": "struct Marketplace.Listing",
          "name": "",
          "type": "tuple"
        }
      ],
      "stateMutability": "view",
      "type": "function"
    },
    {
      "inputs": [
        {
          "internalType": "uint256",
          "name": "tokenId",
          "type": "uint256"
        }
      ],
      "name": "getListingByToken",
      "outputs": [
        {
          "components": [
            {
              "internalType": "uint256",
              "name": "listingId",
              "type": "uint256"
            },
            {
              "internalType": "uint256",
              "name": "tokenId",
              "type": "uint256"
            },
            {
              "internalType": "address",
              "name": "seller",
              "type": "address"
            },
            {
              "internalType": "uint256",
              "name": "price",
              "type": "uint256"
            },
            {
              "internalType": "bool",
              "name": "active",
              "type": "bool"
            },
            {
              "internalType": "uint256",
              "name": "createdAt",
              "type": "uint256"
            }
          ],
          "internalType": "struct Marketplace.Listing",
          "name": "",
          "type": "tuple"
        }
      ],
      "stateMutability": "view",
      "type": "function"
    },
    {
      "inputs": [
        {
          "internalType": "address",
          "name": "seller",
          "type": "address"
        }
      ],
      "name": "getListingsBySeller",
      "outputs": [
        {
          "internalType": "uint256[]",
          "name": "",
          "type": "uint256[]"
        }
      ],
      "stateMutability": "view",
      "type": "function"
    },
    {
      "inputs": [
        {
          "internalType": "bytes32",
          "name": "role",
          "type": "bytes32"
        }
      ],
      "name": "getRoleAdmin",
      "outputs": [
        {
          "internalType": "bytes32",
          "name": "",
          "type": "bytes32"
        }
      ],
      "stateMutability": "view",
      "type": "function"
    },
    {
      "inputs": [],
      "name": "getTrustedForwarder",
      "outputs": [
        {
          "internalType": "address",
          "name": "",
          "type": "address"
        }
      ],
      "stateMutability": "view",
      "type": "function"
    },
    {
      "inputs": [
        {
          "internalType": "bytes32",
          "name": "role",
          "type": "bytes32"
        },
        {
          "internalType": "address",
          "name": "account",
          "type": "address"
        }
      ],
      "name": "grantRole",
      "outputs": [],
      "stateMutability": "nonpayable",
      "type": "function"
    },
    {
      "inputs": [
        {
          "internalType": "bytes32",
          "name": "role",
          "type": "bytes32"
        },
        {
          "internalType": "address",
          "name": "account",
          "type": "address"
        }
      ],
      "name": "hasRole",
      "outputs": [
        {
          "internalType": "bool",
          "name": "",
          "type": "bool"
        }
      ],
      "stateMutability": "view",
      "type": "function"
    },
    {
      "inputs": [
        {
          "internalType": "address",
          "name": "forwarder",
          "type": "address"
        }
      ],
      "name": "isTrustedForwarder",
      "outputs": [
        {
          "internalType": "bool",
          "name": "",
          "type": "bool"
        }
      ],
      "stateMutability": "view",
      "type": "function"
    },
    {
      "inputs": [
        {
          "internalType": "uint256",
          "name": "",
          "type": "uint256"
        }
      ],
      "name": "listings",
      "outputs": [
        {
          "internalType": "uint256",
          "name": "listingId",
          "type": "uint256"
        },
        {
          "internalType": "uint256",
          "name": "tokenId",
          "type": "uint256"
        },
        {
          "internalType": "address",
          "name": "seller",
          "type": "address"
        },
        {
          "internalType": "uint256",
          "name": "price",
          "type": "uint256"
        },
        {
          "internalType": "bool",
          "name": "active",
          "type": "bool"
        },
        {
          "internalType": "uint256",
          "name": "createdAt",
          "type": "uint256"
        }
      ],
      "stateMutability": "view",
      "type": "function"
    },
    {
      "inputs": [
        {
          "internalType": "uint256",
          "name": "listingId",
          "type": "uint256"
        }
      ],
      "name": "purchaseListing",
      "outputs": [],
      "stateMutability": "payable",
      "type": "function"
    },
    {
      "inputs": [
        {
          "internalType": "uint256",
          "name": "listingId",
          "type": "uint256"
        }
      ],
      "name": "purchaseWithEscrow",
      "outputs": [],
      "stateMutability": "payable",
      "type": "function"
    },
    {
      "inputs": [
        {
          "internalType": "bytes32",
          "name": "role",
          "type": "bytes32"
        },
        {
          "internalType": "address",
          "name": "account",
          "type": "address"
        }
      ],
      "name": "renounceRole",
      "outputs": [],
      "stateMutability": "nonpayable",
      "type": "function"
    },
    {
      "inputs": [
        {
          "internalType": "bytes32",
          "name": "role",
          "type": "bytes32"
        },
        {
          "internalType": "address",
          "name": "account",
          "type": "address"
        }
      ],
      "name": "revokeRole",
      "outputs": [],
      "stateMutability": "nonpayable",
      "type": "function"
    },
    {
      "inputs": [
        {
          "internalType": "address",
          "name": "",
          "type": "address"
        }
      ],
      "name": "sellerListingCount",
      "outputs": [
        {
          "internalType": "uint256",
          "name": "",
          "type": "uint256"
        }
      ],
      "stateMutability": "view",
      "type": "function"
    },
    {
      "inputs": [
        {
          "internalType": "uint256",
          "name": "feeBps",
          "type": "uint256"
        }
      ],
      "name": "setPlatformFee",
      "outputs": [],
      "stateMutability": "nonpayable",
      "type": "function"
    },
    {
      "inputs": [
        {
          "internalType": "address",
          "name": "treasury",
          "type": "address"
        }
      ],
      "name": "setTreasuryAddress",
      "outputs": [],
      "stateMutability": "nonpayable",
      "type": "function"
    },
    {
      "inputs": [
        {
          "internalType": "bytes4",
          "name": "interfaceId",
          "type": "bytes4"
        }
      ],
      "name": "supportsInterface",
      "outputs": [
        {
          "internalType": "bool",
          "name": "",
          "type": "bool"
        }
      ],
      "stateMutability": "view",
      "type": "function"
    },
    {
      "inputs": [
        {
          "internalType": "uint256",
          "name": "",
          "type": "uint256"
        }
      ],
      "name": "tokenToListing",
      "outputs": [
        {
          "internalType": "uint256",
          "name": "",
          "type": "uint256"
        }
      ],
      "stateMutability": "view",
      "type": "function"
    },
    {
      "inputs": [],
      "name": "treasuryAddress",
      "outputs": [
        {
          "internalType": "address",
          "name": "",
          "type": "address"
        }
      ],
      "stateMutability": "view",
      "type": "function"
    },
    {
      "inputs": [],
      "name": "trustedForwarderAddress",
      "outputs": [
        {
          "internalType": "address",
          "name": "",
          "type": "address"
        }
      ],
      "stateMutability": "view",
      "type": "function"
    },
    {
      "inputs": [
        {
          "internalType": "uint256",
          "name": "listingId",
          "type": "uint256"
        },
        {
          "internalType": "uint256",
          "name": "newPrice",
          "type": "uint256"
        }
      ],
      "name": "updateListing",
      "outputs": [],
      "stateMutability": "nonpayable",
      "type": "function"
    }
  ],
  "bytecode": "0x60e06040523480156200001157600080fd5b5060405162004a7d38038062004a7d83398181016040528101906200003791906200066f565b8480600180819055508073ffffffffffffffffffffffffffffffffffffffff1660808173ffffffffffffffffffffffffffffffffffffffff16815250505080600260006101000a81548173ffffffffffffffffffffffffffffffffffffffff021916908373ffffffffffffffffffffffffffffffffffffffff16021790555050600073ffffffffffffffffffffffffffffffffffffffff168273ffffffffffffffffffffffffffffffffffffffff160362000129576040517f08c379a000000000000000000000000000000000000000000000000000000000815260040162000120906200077e565b60405180910390fd5b600073ffffffffffffffffffffffffffffffffffffffff168173ffffffffffffffffffffffffffffffffffffffff16036200019b576040517f08c379a0000000000000000000000000000000000000000000000000000000008152600401620001929062000816565b60405180910390fd5b600073ffffffffffffffffffffffffffffffffffffffff168373ffffffffffffffffffffffffffffffffffffffff16036200020d576040517f08c379a00000000000000000000000000000000000000000000000000000000081526004016200020490620008ae565b60405180910390fd5b620002226000801b856200030860201b60201c565b620002547fa49807205ce4d355092ef5a8a18f56e8913cf4a201fbe287825b095693c21775856200030860201b60201c565b82600460006101000a81548173ffffffffffffffffffffffffffffffffffffffff021916908373ffffffffffffffffffffffffffffffffffffffff1602179055508173ffffffffffffffffffffffffffffffffffffffff1660a08173ffffffffffffffffffffffffffffffffffffffff16815250508073ffffffffffffffffffffffffffffffffffffffff1660c08173ffffffffffffffffffffffffffffffffffffffff1681525050505050505062000a39565b6200031a8282620003f960201b60201c565b620003f557600160008084815260200190815260200160002060000160008373ffffffffffffffffffffffffffffffffffffffff1673ffffffffffffffffffffffffffffffffffffffff16815260200190815260200160002060006101000a81548160ff0219169083151502179055506200039a6200046360201b60201c565b73ffffffffffffffffffffffffffffffffffffffff168173ffffffffffffffffffffffffffffffffffffffff16837f2f8788117e7eff1d82e926ec794901d17c78024a50270940304540a733656f0d60405160405180910390a45b5050565b600080600084815260200190815260200160002060000160008373ffffffffffffffffffffffffffffffffffffffff1673ffffffffffffffffffffffffffffffffffffffff16815260200190815260200160002060009054906101000a900460ff16905092915050565b6000620004756200047a60201b60201c565b905090565b60006200048c6200049160201b60201c565b905090565b600080600036905090506000620004ad6200052760201b60201c565b9050620004c0336200053e60201b60201c565b8015620004cd5750808210155b156200050f576000368284620004e4919062000909565b908092620004f5939291906200094e565b90620005029190620009d3565b60601c9250505062000524565b6200051f6200059860201b60201c565b925050505b90565b600062000539620005a060201b60201c565b905090565b6000600260009054906101000a900473ffffffffffffffffffffffffffffffffffffffff1673ffffffffffffffffffffffffffffffffffffffff168273ffffffffffffffffffffffffffffffffffffffff16149050919050565b600033905090565b6000620005b2620005b760201b60201c565b905090565b60006014905090565b600080fd5b600073ffffffffffffffffffffffffffffffffffffffff82169050919050565b6000620005f282620005c5565b9050919050565b6200060481620005e5565b81146200061057600080fd5b50565b6000815190506200062481620005f9565b92915050565b60006200063782620005c5565b9050919050565b62000649816200062a565b81146200065557600080fd5b50565b60008151905062000669816200063e565b92915050565b600080600080600060a086880312156200068e576200068d620005c0565b5b60006200069e8882890162000613565b9550506020620006b18882890162000613565b9450506040620006c48882890162000613565b9350506060620006d78882890162000613565b9250506080620006ea8882890162000658565b9150509295509295909350565b600082825260208201905092915050565b7f4d61726b6574706c6163653a20496e76616c6964204361724e4654206164647260008201527f6573730000000000000000000000000000000000000000000000000000000000602082015250565b600062000766602383620006f7565b9150620007738262000708565b604082019050919050565b60006020820190508181036000830152620007998162000757565b9050919050565b7f4d61726b6574706c6163653a20496e76616c696420457363726f77206164647260008201527f6573730000000000000000000000000000000000000000000000000000000000602082015250565b6000620007fe602383620006f7565b91506200080b82620007a0565b604082019050919050565b600060208201905081810360008301526200083181620007ef565b9050919050565b7f4d61726b6574706c6163653a20496e76616c696420747265617375727920616460008201527f6472657373000000000000000000000000000000000000000000000000000000602082015250565b600062000896602583620006f7565b9150620008a38262000838565b604082019050919050565b60006020820190508181036000830152620008c98162000887565b9050919050565b6000819050919050565b7f4e487b7100000000000000000000000000000000000000000000000000000000600052601160045260246000fd5b60006200091682620008d0565b91506200092383620008d0565b92508282039050818111156200093e576200093d620008da565b5b92915050565b600080fd5b600080fd5b6000808585111562000965576200096462000944565b5b8386111562000979576200097862000949565b5b6001850283019150848603905094509492505050565b600082905092915050565b60007fffffffffffffffffffffffffffffffffffffffff00000000000000000000000082169050919050565b600082821b905092915050565b6000620009e183836200098f565b82620009ee81356200099a565b9250601482101562000a315762000a2c7fffffffffffffffffffffffffffffffffffffffff00000000000000000000000083601403600802620009c6565b831692505b505092915050565b60805160a05160c051613fdf62000a9e600039600081816109f5015281816117fc0152611872015260008181610dc901528181611225015281816117bf01528181611bc901528181611d5201528181611fb20152612395015260005050613fdf6000f3fe6080604052600436106101e35760003560e01c806386f0423e11610102578063d11a57ec11610095578063db2e21bc11610064578063db2e21bc14610712578063de74e57b14610729578063ea7eaec61461076b578063f2f17bf5146107a8576101e3565b8063d11a57ec14610656578063d547741f14610681578063d55be8c6146106aa578063d8cba251146106d5576101e3565b8063a79123a9116100d1578063a79123a914610586578063c5f956af146105c3578063ca2e75a4146105ee578063ce1b815f1461062b576101e3565b806386f0423e146104c857806387c35bc0146104f357806391d148541461051e578063a217fddf1461055b576101e3565b8063305a67a81161017a5780636605bfda116101495780636605bfda1461041b57806369e0eaa51461044457806375b238fc146104815780637856db5f146104ac576101e3565b8063305a67a81461036157806336568abe1461038a578063539aa77f146103b3578063572b6c05146103de576101e3565b806312e8e2c3116101b657806312e8e2c3146102b6578063169d5a7d146102df578063248a9ca3146102fb5780632f2ff15d14610338576101e3565b80630179ea88146101e857806301ffc9a7146102115780630d5defa41461024e578063107a274a14610279575b600080fd5b3480156101f457600080fd5b5061020f600480360381019061020a9190612aba565b6107d3565b005b34801561021d57600080fd5b5061023860048036038101906102339190612b52565b610979565b6040516102459190612b9a565b60405180910390f35b34801561025a57600080fd5b506102636109f3565b6040516102709190612bf6565b60405180910390f35b34801561028557600080fd5b506102a0600480360381019061029b9190612c11565b610a17565b6040516102ad9190612cf8565b60405180910390f35b3480156102c257600080fd5b506102dd60048036038101906102d89190612c11565b610add565b005b6102f960048036038101906102f49190612c11565b610b90565b005b34801561030757600080fd5b50610322600480360381019061031d9190612d49565b611046565b60405161032f9190612d85565b60405180910390f35b34801561034457600080fd5b5061035f600480360381019061035a9190612dcc565b611065565b005b34801561036d57600080fd5b5061038860048036038101906103839190612c11565b611086565b005b34801561039657600080fd5b506103b160048036038101906103ac9190612dcc565b611313565b005b3480156103bf57600080fd5b506103c8611396565b6040516103d59190612e1b565b60405180910390f35b3480156103ea57600080fd5b5061040560048036038101906104009190612e36565b61139b565b6040516104129190612b9a565b60405180910390f35b34801561042757600080fd5b50610442600480360381019061043d9190612e36565b6113f5565b005b34801561045057600080fd5b5061046b60048036038101906104669190612e36565b611555565b6040516104789190612e1b565b60405180910390f35b34801561048d57600080fd5b5061049661156d565b6040516104a39190612d85565b60405180910390f35b6104c660048036038101906104c19190612c11565b611591565b005b3480156104d457600080fd5b506104dd611ab7565b6040516104ea9190612e72565b60405180910390f35b3480156104ff57600080fd5b50610508611add565b6040516105159190612f3c565b60405180910390f35b34801561052a57600080fd5b5061054560048036038101906105409190612dcc565b611b2e565b6040516105529190612b9a565b60405180910390f35b34801561056757600080fd5b50610570611b98565b60405161057d9190612d85565b60405180910390f35b34801561059257600080fd5b506105ad60048036038101906105a89190612aba565b611b9f565b6040516105ba9190612e1b565b60405180910390f35b3480156105cf57600080fd5b506105d86120af565b6040516105e59190612e72565b60405180910390f35b3480156105fa57600080fd5b5061061560048036038101906106109190612c11565b6120d5565b6040516106229190612cf8565b60405180910390f35b34801561063757600080fd5b506106406121b4565b60405161064d9190612e72565b60405180910390f35b34801561066257600080fd5b5061066b6121de565b6040516106789190612d85565b60405180910390f35b34801561068d57600080fd5b506106a860048036038101906106a39190612dcc565b612202565b005b3480156106b657600080fd5b506106bf612223565b6040516106cc9190612e1b565b60405180910390f35b3480156106e157600080fd5b506106fc60048036038101906106f79190612e36565b612229565b6040516107099190612f3c565b60405180910390f35b34801561071e57600080fd5b5061072761227c565b005b34801561073557600080fd5b50610750600480360381019061074b9190612c11565b612312565b60405161076296959493929190612f5e565b60405180910390f35b34801561077757600080fd5b50610792600480360381019061078d9190612c11565b61237b565b60405161079f9190612e1b565b60405180910390f35b3480156107b457600080fd5b506107bd612393565b6040516107ca919061301e565b60405180910390f35b6107db6123b7565b60006005600084815260200190815260200160002090506107fa612406565b73ffffffffffffffffffffffffffffffffffffffff168160020160009054906101000a900473ffffffffffffffffffffffffffffffffffffffff1673ffffffffffffffffffffffffffffffffffffffff161461088b576040517f08c379a000000000000000000000000000000000000000000000000000000000815260040161088290613096565b60405180910390fd5b8060040160009054906101000a900460ff166108dc576040517f08c379a00000000000000000000000000000000000000000000000000000000081526004016108d390613102565b60405180910390fd5b6000821161091f576040517f08c379a000000000000000000000000000000000000000000000000000000000815260040161091690613194565b60405180910390fd5b600081600301549050828260030181905550837ff7adc9a0380a940c6058d78194df6a9b9fa5bb431bbad15194913bb611f3f4f782856040516109639291906131b4565b60405180910390a25050610975612415565b5050565b60007f7965db0b000000000000000000000000000000000000000000000000000000007bffffffffffffffffffffffffffffffffffffffffffffffffffffffff1916827bffffffffffffffffffffffffffffffffffffffffffffffffffffffff191614806109ec57506109eb8261241e565b5b9050919050565b7f000000000000000000000000000000000000000000000000000000000000000081565b610a1f612a22565b600560008381526020019081526020016000206040518060c001604052908160008201548152602001600182015481526020016002820160009054906101000a900473ffffffffffffffffffffffffffffffffffffffff1673ffffffffffffffffffffffffffffffffffffffff1673ffffffffffffffffffffffffffffffffffffffff168152602001600382015481526020016004820160009054906101000a900460ff161515151581526020016005820154815250509050919050565b7fa49807205ce4d355092ef5a8a18f56e8913cf4a201fbe287825b095693c21775610b0781612488565b6103e8821115610b4c576040517f08c379a0000000000000000000000000000000000000000000000000000000008152600401610b4390613229565b60405180910390fd5b600060c890507fd347e206f25a89b917fc9482f1a2d294d749baa4dc9bde7fb495ee11fe4916438184604051610b839291906131b4565b60405180910390a1505050565b610b986123b7565b60006005600083815260200190815260200160002090508060040160009054906101000a900460ff16610c00576040517f08c379a0000000000000000000000000000000000000000000000000000000008152600401610bf790613102565b60405180910390fd5b8060030154341015610c47576040517f08c379a0000000000000000000000000000000000000000000000000000000008152600401610c3e906132bb565b60405180910390fd5b8060020160009054906101000a900473ffffffffffffffffffffffffffffffffffffffff1673ffffffffffffffffffffffffffffffffffffffff16610c8a612406565b73ffffffffffffffffffffffffffffffffffffffff1603610ce0576040517f08c379a0000000000000000000000000000000000000000000000000000000008152600401610cd79061334d565b60405180910390fd5b600061271060c88360030154610cf6919061339c565b610d00919061340d565b90506000818360030154610d14919061343e565b905060008360040160006101000a81548160ff021916908315150217905550600660008460010154815260200190815260200160002060009055600760008460020160009054906101000a900473ffffffffffffffffffffffffffffffffffffffff1673ffffffffffffffffffffffffffffffffffffffff1673ffffffffffffffffffffffffffffffffffffffff1681526020019081526020016000206000815480929190610dc290613472565b91905055507f000000000000000000000000000000000000000000000000000000000000000073ffffffffffffffffffffffffffffffffffffffff166323b872dd30610e0c612406565b86600101546040518463ffffffff1660e01b8152600401610e2f9392919061349b565b600060405180830381600087803b158015610e4957600080fd5b505af1158015610e5d573d6000803e3d6000fd5b505050506000821115610ed457600460009054906101000a900473ffffffffffffffffffffffffffffffffffffffff1673ffffffffffffffffffffffffffffffffffffffff166108fc839081150290604051600060405180830381858888f19350505050158015610ed2573d6000803e3d6000fd5b505b6000811115610f49578260020160009054906101000a900473ffffffffffffffffffffffffffffffffffffffff1673ffffffffffffffffffffffffffffffffffffffff166108fc829081150290604051600060405180830381858888f19350505050158015610f47573d6000803e3d6000fd5b505b8260030154341115610fb357610f5d612406565b73ffffffffffffffffffffffffffffffffffffffff166108fc846003015434610f86919061343e565b9081150290604051600060405180830381858888f19350505050158015610fb1573d6000803e3d6000fd5b505b610fbb612406565b73ffffffffffffffffffffffffffffffffffffffff168360010154857f19e569be08b3c04f56e4185afdf09dd36bb5570a4ddfa77913d436f59cdd1caa8660020160009054906101000a900473ffffffffffffffffffffffffffffffffffffffff1687600301546040516110309291906134d2565b60405180910390a4505050611043612415565b50565b6000806000838152602001908152602001600020600101549050919050565b61106e82611046565b61107781612488565b611081838361249c565b505050565b61108e6123b7565b60006005600083815260200190815260200160002090506110ad612406565b73ffffffffffffffffffffffffffffffffffffffff168160020160009054906101000a900473ffffffffffffffffffffffffffffffffffffffff1673ffffffffffffffffffffffffffffffffffffffff161461113e576040517f08c379a000000000000000000000000000000000000000000000000000000000815260040161113590613096565b60405180910390fd5b8060040160009054906101000a900460ff1661118f576040517f08c379a000000000000000000000000000000000000000000000000000000000815260040161118690613102565b60405180910390fd5b60008160040160006101000a81548160ff021916908315150217905550600660008260010154815260200190815260200160002060009055600760006111d3612406565b73ffffffffffffffffffffffffffffffffffffffff1673ffffffffffffffffffffffffffffffffffffffff168152602001908152602001600020600081548092919061121e90613472565b91905055507f000000000000000000000000000000000000000000000000000000000000000073ffffffffffffffffffffffffffffffffffffffff166323b872dd308360020160009054906101000a900473ffffffffffffffffffffffffffffffffffffffff1684600101546040518463ffffffff1660e01b81526004016112a89392919061349b565b600060405180830381600087803b1580156112c257600080fd5b505af11580156112d6573d6000803e3d6000fd5b50505050817f411aee90354c51b1b04cd563fcab2617142a9d50da19232d888547c8a1b7fd8a60405160405180910390a250611310612415565b50565b61131b612406565b73ffffffffffffffffffffffffffffffffffffffff168173ffffffffffffffffffffffffffffffffffffffff1614611388576040517f08c379a000000000000000000000000000000000000000000000000000000000815260040161137f9061356d565b60405180910390fd5b611392828261257c565b5050565b60c881565b6000600260009054906101000a900473ffffffffffffffffffffffffffffffffffffffff1673ffffffffffffffffffffffffffffffffffffffff168273ffffffffffffffffffffffffffffffffffffffff16149050919050565b7fa49807205ce4d355092ef5a8a18f56e8913cf4a201fbe287825b095693c2177561141f81612488565b600073ffffffffffffffffffffffffffffffffffffffff168273ffffffffffffffffffffffffffffffffffffffff160361148e576040517f08c379a0000000000000000000000000000000000000000000000000000000008152600401611485906135ff565b60405180910390fd5b6000600460009054906101000a900473ffffffffffffffffffffffffffffffffffffffff16905082600460006101000a81548173ffffffffffffffffffffffffffffffffffffffff021916908373ffffffffffffffffffffffffffffffffffffffff1602179055508273ffffffffffffffffffffffffffffffffffffffff168173ffffffffffffffffffffffffffffffffffffffff167f4ab5be82436d353e61ca18726e984e561f5c1cc7c6d38b29d2553c790434705a60405160405180910390a3505050565b60076020528060005260406000206000915090505481565b7fa49807205ce4d355092ef5a8a18f56e8913cf4a201fbe287825b095693c2177581565b6115996123b7565b60006005600083815260200190815260200160002090508060040160009054906101000a900460ff16611601576040517f08c379a00000000000000000000000000000000000000000000000000000000081526004016115f890613102565b60405180910390fd5b8060030154341015611648576040517f08c379a000000000000000000000000000000000000000000000000000000000815260040161163f906132bb565b60405180910390fd5b8060020160009054906101000a900473ffffffffffffffffffffffffffffffffffffffff1673ffffffffffffffffffffffffffffffffffffffff1661168b612406565b73ffffffffffffffffffffffffffffffffffffffff16036116e1576040517f08c379a00000000000000000000000000000000000000000000000000000000081526004016116d89061334d565b60405180910390fd5b600061271060c883600301546116f7919061339c565b611701919061340d565b905060008260030154905060008360040160006101000a81548160ff021916908315150217905550600660008460010154815260200190815260200160002060009055600760008460020160009054906101000a900473ffffffffffffffffffffffffffffffffffffffff1673ffffffffffffffffffffffffffffffffffffffff1673ffffffffffffffffffffffffffffffffffffffff16815260200190815260200160002060008154809291906117b890613472565b91905055507f000000000000000000000000000000000000000000000000000000000000000073ffffffffffffffffffffffffffffffffffffffff166323b872dd307f000000000000000000000000000000000000000000000000000000000000000086600101546040518463ffffffff1660e01b815260040161183e93929190613640565b600060405180830381600087803b15801561185857600080fd5b505af115801561186c573d6000803e3d6000fd5b505050507f000000000000000000000000000000000000000000000000000000000000000073ffffffffffffffffffffffffffffffffffffffff1663fe51c9313485600101548660020160009054906101000a900473ffffffffffffffffffffffffffffffffffffffff166118df612406565b88600301546040518663ffffffff1660e01b81526004016119039493929190613677565b60206040518083038185885af1158015611921573d6000803e3d6000fd5b50505050506040513d601f19601f8201168201806040525081019061194691906136d1565b5060008211156119ba57600460009054906101000a900473ffffffffffffffffffffffffffffffffffffffff1673ffffffffffffffffffffffffffffffffffffffff166108fc839081150290604051600060405180830381858888f193505050501580156119b8573d6000803e3d6000fd5b505b8260030154341115611a24576119ce612406565b73ffffffffffffffffffffffffffffffffffffffff166108fc8460030154346119f7919061343e565b9081150290604051600060405180830381858888f19350505050158015611a22573d6000803e3d6000fd5b505b611a2c612406565b73ffffffffffffffffffffffffffffffffffffffff168360010154857f19e569be08b3c04f56e4185afdf09dd36bb5570a4ddfa77913d436f59cdd1caa8660020160009054906101000a900473ffffffffffffffffffffffffffffffffffffffff168760030154604051611aa19291906134d2565b60405180910390a4505050611ab4612415565b50565b600260009054906101000a900473ffffffffffffffffffffffffffffffffffffffff1681565b6060600067ffffffffffffffff811115611afa57611af96136fe565b5b604051908082528060200260200182016040528015611b285781602001602082028036833780820191505090505b50905090565b600080600084815260200190815260200160002060000160008373ffffffffffffffffffffffffffffffffffffffff1673ffffffffffffffffffffffffffffffffffffffff16815260200190815260200160002060009054906101000a900460ff16905092915050565b6000801b81565b6000611ba96123b7565b611bb1612406565b73ffffffffffffffffffffffffffffffffffffffff167f000000000000000000000000000000000000000000000000000000000000000073ffffffffffffffffffffffffffffffffffffffff16636352211e856040518263ffffffff1660e01b8152600401611c209190612e1b565b602060405180830381865afa158015611c3d573d6000803e3d6000fd5b505050506040513d601f19601f82011682018060405250810190611c619190613742565b73ffffffffffffffffffffffffffffffffffffffff1614611cb7576040517f08c379a0000000000000000000000000000000000000000000000000000000008152600401611cae906137bb565b60405180910390fd5b60008211611cfa576040517f08c379a0000000000000000000000000000000000000000000000000000000008152600401611cf190613194565b60405180910390fd5b6000600660008581526020019081526020016000205414611d50576040517f08c379a0000000000000000000000000000000000000000000000000000000008152600401611d479061384d565b60405180910390fd5b7f000000000000000000000000000000000000000000000000000000000000000073ffffffffffffffffffffffffffffffffffffffff1663472ec454846040518263ffffffff1660e01b8152600401611da99190612e1b565b600060405180830381865afa158015611dc6573d6000803e3d6000fd5b505050506040513d6000823e3d601f19601f82011682018060405250810190611def9190613aef565b60800151611e32576040517f08c379a0000000000000000000000000000000000000000000000000000000008152600401611e2990613baa565b60405180910390fd5b6000611e3e600361265d565b9050611e4a600361266b565b6040518060c00160405280828152602001858152602001611e69612406565b73ffffffffffffffffffffffffffffffffffffffff1681526020018481526020016001151581526020014281525060056000838152602001908152602001600020600082015181600001556020820151816001015560408201518160020160006101000a81548173ffffffffffffffffffffffffffffffffffffffff021916908373ffffffffffffffffffffffffffffffffffffffff1602179055506060820151816003015560808201518160040160006101000a81548160ff02191690831515021790555060a0820151816005015590505080600660008681526020019081526020016000208190555060076000611f60612406565b73ffffffffffffffffffffffffffffffffffffffff1673ffffffffffffffffffffffffffffffffffffffff1681526020019081526020016000206000815480929190611fab90613bca565b91905055507f000000000000000000000000000000000000000000000000000000000000000073ffffffffffffffffffffffffffffffffffffffff166323b872dd611ff4612406565b30876040518463ffffffff1660e01b81526004016120149392919061349b565b600060405180830381600087803b15801561202e57600080fd5b505af1158015612042573d6000803e3d6000fd5b5050505061204e612406565b73ffffffffffffffffffffffffffffffffffffffff1684827f8093adc67e6531e4dcb9f96fe66947096b91ad10573e8136f8ef1a1cebe2fad6866040516120959190612e1b565b60405180910390a4809150506120a9612415565b92915050565b600460009054906101000a900473ffffffffffffffffffffffffffffffffffffffff1681565b6120dd612a22565b600060066000848152602001908152602001600020549050600560008281526020019081526020016000206040518060c001604052908160008201548152602001600182015481526020016002820160009054906101000a900473ffffffffffffffffffffffffffffffffffffffff1673ffffffffffffffffffffffffffffffffffffffff1673ffffffffffffffffffffffffffffffffffffffff168152602001600382015481526020016004820160009054906101000a900460ff16151515158152602001600582015481525050915050919050565b6000600260009054906101000a900473ffffffffffffffffffffffffffffffffffffffff16905090565b7fe1dcbdb91df27212a29bc27177c840cf2f819ecf2187432e1fac86c2dd5dfca981565b61220b82611046565b61221481612488565b61221e838361257c565b505050565b6103e881565b6060600067ffffffffffffffff811115612246576122456136fe565b5b6040519080825280602002602001820160405280156122745781602001602082028036833780820191505090505b509050919050565b7fa49807205ce4d355092ef5a8a18f56e8913cf4a201fbe287825b095693c217756122a681612488565b600460009054906101000a900473ffffffffffffffffffffffffffffffffffffffff1673ffffffffffffffffffffffffffffffffffffffff166108fc479081150290604051600060405180830381858888f1935050505015801561230e573d6000803e3d6000fd5b5050565b60056020528060005260406000206000915090508060000154908060010154908060020160009054906101000a900473ffffffffffffffffffffffffffffffffffffffff16908060030154908060040160009054906101000a900460ff16908060050154905086565b60066020528060005260406000206000915090505481565b7f000000000000000000000000000000000000000000000000000000000000000081565b6002600154036123fc576040517f08c379a00000000000000000000000000000000000000000000000000000000081526004016123f390613c5e565b60405180910390fd5b6002600181905550565b6000612410612681565b905090565b60018081905550565b60007f01ffc9a7000000000000000000000000000000000000000000000000000000007bffffffffffffffffffffffffffffffffffffffffffffffffffffffff1916827bffffffffffffffffffffffffffffffffffffffffffffffffffffffff1916149050919050565b61249981612494612406565b612690565b50565b6124a68282611b2e565b61257857600160008084815260200190815260200160002060000160008373ffffffffffffffffffffffffffffffffffffffff1673ffffffffffffffffffffffffffffffffffffffff16815260200190815260200160002060006101000a81548160ff02191690831515021790555061251d612406565b73ffffffffffffffffffffffffffffffffffffffff168173ffffffffffffffffffffffffffffffffffffffff16837f2f8788117e7eff1d82e926ec794901d17c78024a50270940304540a733656f0d60405160405180910390a45b5050565b6125868282611b2e565b1561265957600080600084815260200190815260200160002060000160008373ffffffffffffffffffffffffffffffffffffffff1673ffffffffffffffffffffffffffffffffffffffff16815260200190815260200160002060006101000a81548160ff0219169083151502179055506125fe612406565b73ffffffffffffffffffffffffffffffffffffffff168173ffffffffffffffffffffffffffffffffffffffff16837ff6391f5c32d9c69d2a47ea670b442974b53935d1edc7fd64eb21e047a839171b60405160405180910390a45b5050565b600081600001549050919050565b6001816000016000828254019250508190555050565b600061268b612715565b905090565b61269a8282611b2e565b612711576126a78161278a565b6126b58360001c60206127b7565b6040516020016126c6929190613d5d565b6040516020818303038152906040526040517f08c379a00000000000000000000000000000000000000000000000000000000081526004016127089190613dd0565b60405180910390fd5b5050565b6000806000369050905060006127296129f3565b90506127343361139b565b80156127405750808210155b1561277a576000368284612754919061343e565b90809261276393929190613dfc565b9061276e9190613e7b565b60601c92505050612787565b612782612a02565b925050505b90565b60606127b08273ffffffffffffffffffffffffffffffffffffffff16601460ff166127b7565b9050919050565b6060600060028360026127ca919061339c565b6127d49190613eda565b67ffffffffffffffff8111156127ed576127ec6136fe565b5b6040519080825280601f01601f19166020018201604052801561281f5781602001600182028036833780820191505090505b5090507f30000000000000000000000000000000000000000000000000000000000000008160008151811061285757612856613f0e565b5b60200101907effffffffffffffffffffffffffffffffffffffffffffffffffffffffffffff1916908160001a9053507f7800000000000000000000000000000000000000000000000000000000000000816001815181106128bb576128ba613f0e565b5b60200101907effffffffffffffffffffffffffffffffffffffffffffffffffffffffffffff1916908160001a905350600060018460026128fb919061339c565b6129059190613eda565b90505b60018111156129a5577f3031323334353637383961626364656600000000000000000000000000000000600f86166010811061294757612946613f0e565b5b1a60f81b82828151811061295e5761295d613f0e565b5b60200101907effffffffffffffffffffffffffffffffffffffffffffffffffffffffffffff1916908160001a905350600485901c94508061299e90613472565b9050612908565b50600084146129e9576040517f08c379a00000000000000000000000000000000000000000000000000000000081526004016129e090613f89565b60405180910390fd5b8091505092915050565b60006129fd612a0a565b905090565b600033905090565b6000612a14612a19565b905090565b60006014905090565b6040518060c001604052806000815260200160008152602001600073ffffffffffffffffffffffffffffffffffffffff16815260200160008152602001600015158152602001600081525090565b6000604051905090565b600080fd5b600080fd5b6000819050919050565b612a9781612a84565b8114612aa257600080fd5b50565b600081359050612ab481612a8e565b92915050565b60008060408385031215612ad157612ad0612a7a565b5b6000612adf85828601612aa5565b9250506020612af085828601612aa5565b9150509250929050565b60007fffffffff0000000000000000000000000000000000000000000000000000000082169050919050565b612b2f81612afa565b8114612b3a57600080fd5b50565b600081359050612b4c81612b26565b92915050565b600060208284031215612b6857612b67612a7a565b5b6000612b7684828501612b3d565b91505092915050565b60008115159050919050565b612b9481612b7f565b82525050565b6000602082019050612baf6000830184612b8b565b92915050565b600073ffffffffffffffffffffffffffffffffffffffff82169050919050565b6000612be082612bb5565b9050919050565b612bf081612bd5565b82525050565b6000602082019050612c0b6000830184612be7565b92915050565b600060208284031215612c2757612c26612a7a565b5b6000612c3584828501612aa5565b91505092915050565b612c4781612a84565b82525050565b6000612c5882612bb5565b9050919050565b612c6881612c4d565b82525050565b612c7781612b7f565b82525050565b60c082016000820151612c936000850182612c3e565b506020820151612ca66020850182612c3e565b506040820151612cb96040850182612c5f565b506060820151612ccc6060850182612c3e565b506080820151612cdf6080850182612c6e565b5060a0820151612cf260a0850182612c3e565b50505050565b600060c082019050612d0d6000830184612c7d565b92915050565b6000819050919050565b612d2681612d13565b8114612d3157600080fd5b50565b600081359050612d4381612d1d565b92915050565b600060208284031215612d5f57612d5e612a7a565b5b6000612d6d84828501612d34565b91505092915050565b612d7f81612d13565b82525050565b6000602082019050612d9a6000830184612d76565b92915050565b612da981612c4d565b8114612db457600080fd5b50565b600081359050612dc681612da0565b92915050565b60008060408385031215612de357612de2612a7a565b5b6000612df185828601612d34565b9250506020612e0285828601612db7565b9150509250929050565b612e1581612a84565b82525050565b6000602082019050612e306000830184612e0c565b92915050565b600060208284031215612e4c57612e4b612a7a565b5b6000612e5a84828501612db7565b91505092915050565b612e6c81612c4d565b82525050565b6000602082019050612e876000830184612e63565b92915050565b600081519050919050565b600082825260208201905092915050565b6000819050602082019050919050565b6000612ec58383612c3e565b60208301905092915050565b6000602082019050919050565b6000612ee982612e8d565b612ef38185612e98565b9350612efe83612ea9565b8060005b83811015612f2f578151612f168882612eb9565b9750612f2183612ed1565b925050600181019050612f02565b5085935050505092915050565b60006020820190508181036000830152612f568184612ede565b905092915050565b600060c082019050612f736000830189612e0c565b612f806020830188612e0c565b612f8d6040830187612e63565b612f9a6060830186612e0c565b612fa76080830185612b8b565b612fb460a0830184612e0c565b979650505050505050565b6000819050919050565b6000612fe4612fdf612fda84612bb5565b612fbf565b612bb5565b9050919050565b6000612ff682612fc9565b9050919050565b600061300882612feb565b9050919050565b61301881612ffd565b82525050565b6000602082019050613033600083018461300f565b92915050565b600082825260208201905092915050565b7f4d61726b6574706c6163653a204e6f74206c697374696e67206f776e65720000600082015250565b6000613080601e83613039565b915061308b8261304a565b602082019050919050565b600060208201905081810360008301526130af81613073565b9050919050565b7f4d61726b6574706c6163653a204c697374696e67206e6f742061637469766500600082015250565b60006130ec601f83613039565b91506130f7826130b6565b602082019050919050565b6000602082019050818103600083015261311b816130df565b9050919050565b7f4d61726b6574706c6163653a205072696365206d75737420626520677265617460008201527f6572207468616e20300000000000000000000000000000000000000000000000602082015250565b600061317e602983613039565b915061318982613122565b604082019050919050565b600060208201905081810360008301526131ad81613171565b9050919050565b60006040820190506131c96000830185612e0c565b6131d66020830184612e0c565b9392505050565b7f4d61726b6574706c6163653a2046656520746f6f206869676800000000000000600082015250565b6000613213601983613039565b915061321e826131dd565b602082019050919050565b6000602082019050818103600083015261324281613206565b9050919050565b7f4d61726b6574706c6163653a20496e73756666696369656e74207061796d656e60008201527f7400000000000000000000000000000000000000000000000000000000000000602082015250565b60006132a5602183613039565b91506132b082613249565b604082019050919050565b600060208201905081810360008301526132d481613298565b9050919050565b7f4d61726b6574706c6163653a2043616e6e6f7420627579206f776e206c69737460008201527f696e670000000000000000000000000000000000000000000000000000000000602082015250565b6000613337602383613039565b9150613342826132db565b604082019050919050565b600060208201905081810360008301526133668161332a565b9050919050565b7f4e487b7100000000000000000000000000000000000000000000000000000000600052601160045260246000fd5b60006133a782612a84565b91506133b283612a84565b92508282026133c081612a84565b915082820484148315176133d7576133d661336d565b5b5092915050565b7f4e487b7100000000000000000000000000000000000000000000000000000000600052601260045260246000fd5b600061341882612a84565b915061342383612a84565b925082613433576134326133de565b5b828204905092915050565b600061344982612a84565b915061345483612a84565b925082820390508181111561346c5761346b61336d565b5b92915050565b600061347d82612a84565b9150600082036134905761348f61336d565b5b600182039050919050565b60006060820190506134b06000830186612e63565b6134bd6020830185612e63565b6134ca6040830184612e0c565b949350505050565b60006040820190506134e76000830185612e63565b6134f46020830184612e0c565b9392505050565b7f416363657373436f6e74726f6c3a2063616e206f6e6c792072656e6f756e636560008201527f20726f6c657320666f722073656c660000000000000000000000000000000000602082015250565b6000613557602f83613039565b9150613562826134fb565b604082019050919050565b600060208201905081810360008301526135868161354a565b9050919050565b7f4d61726b6574706c6163653a20496e76616c696420747265617375727920616460008201527f6472657373000000000000000000000000000000000000000000000000000000602082015250565b60006135e9602583613039565b91506135f48261358d565b604082019050919050565b60006020820190508181036000830152613618816135dc565b9050919050565b600061362a82612feb565b9050919050565b61363a8161361f565b82525050565b60006060820190506136556000830186612e63565b6136626020830185613631565b61366f6040830184612e0c565b949350505050565b600060808201905061368c6000830187612e0c565b6136996020830186612e63565b6136a66040830185612e63565b6136b36060830184612e0c565b95945050505050565b6000815190506136cb81612a8e565b92915050565b6000602082840312156136e7576136e6612a7a565b5b60006136f5848285016136bc565b91505092915050565b7f4e487b7100000000000000000000000000000000000000000000000000000000600052604160045260246000fd5b60008151905061373c81612da0565b92915050565b60006020828403121561375857613757612a7a565b5b60006137668482850161372d565b91505092915050565b7f4d61726b6574706c6163653a204e6f7420746f6b656e206f776e657200000000600082015250565b60006137a5601c83613039565b91506137b08261376f565b602082019050919050565b600060208201905081810360008301526137d481613798565b9050919050565b7f4d61726b6574706c6163653a20546f6b656e20616c7265616479206c6973746560008201527f6400000000000000000000000000000000000000000000000000000000000000602082015250565b6000613837602183613039565b9150613842826137db565b604082019050919050565b600060208201905081810360008301526138668161382a565b9050919050565b600080fd5b6000601f19601f8301169050919050565b61388c82613872565b810181811067ffffffffffffffff821117156138ab576138aa6136fe565b5b80604052505050565b60006138be612a70565b90506138ca8282613883565b919050565b600080fd5b600080fd5b600080fd5b600067ffffffffffffffff8211156138f9576138f86136fe565b5b61390282613872565b9050602081019050919050565b60005b8381101561392d578082015181840152602081019050613912565b60008484015250505050565b600061394c613947846138de565b6138b4565b905082815260208101848484011115613968576139676138d9565b5b61397384828561390f565b509392505050565b600082601f8301126139905761398f6138d4565b5b81516139a0848260208601613939565b91505092915050565b600061ffff82169050919050565b6139c0816139a9565b81146139cb57600080fd5b50565b6000815190506139dd816139b7565b92915050565b6139ec81612b7f565b81146139f757600080fd5b50565b600081519050613a09816139e3565b92915050565b600060a08284031215613a2557613a2461386d565b5b613a2f60a06138b4565b9050600082015167ffffffffffffffff811115613a4f57613a4e6138cf565b5b613a5b8482850161397b565b600083015250602082015167ffffffffffffffff811115613a7f57613a7e6138cf565b5b613a8b8482850161397b565b602083015250604082015167ffffffffffffffff811115613aaf57613aae6138cf565b5b613abb8482850161397b565b6040830152506060613acf848285016139ce565b6060830152506080613ae3848285016139fa565b60808301525092915050565b600060208284031215613b0557613b04612a7a565b5b600082015167ffffffffffffffff811115613b2357613b22612a7f565b5b613b2f84828501613a0f565b91505092915050565b7f4d61726b6574706c6163653a20436172206d757374206265207665726966696560008201527f6400000000000000000000000000000000000000000000000000000000000000602082015250565b6000613b94602183613039565b9150613b9f82613b38565b604082019050919050565b60006020820190508181036000830152613bc381613b87565b9050919050565b6000613bd582612a84565b91507fffffffffffffffffffffffffffffffffffffffffffffffffffffffffffffffff8203613c0757613c0661336d565b5b600182019050919050565b7f5265656e7472616e637947756172643a207265656e7472616e742063616c6c00600082015250565b6000613c48601f83613039565b9150613c5382613c12565b602082019050919050565b60006020820190508181036000830152613c7781613c3b565b9050919050565b600081905092915050565b7f416363657373436f6e74726f6c3a206163636f756e7420000000000000000000600082015250565b6000613cbf601783613c7e565b9150613cca82613c89565b601782019050919050565b600081519050919050565b6000613ceb82613cd5565b613cf58185613c7e565b9350613d0581856020860161390f565b80840191505092915050565b7f206973206d697373696e6720726f6c6520000000000000000000000000000000600082015250565b6000613d47601183613c7e565b9150613d5282613d11565b601182019050919050565b6000613d6882613cb2565b9150613d748285613ce0565b9150613d7f82613d3a565b9150613d8b8284613ce0565b91508190509392505050565b6000613da282613cd5565b613dac8185613039565b9350613dbc81856020860161390f565b613dc581613872565b840191505092915050565b60006020820190508181036000830152613dea8184613d97565b905092915050565b600080fd5b600080fd5b60008085851115613e1057613e0f613df2565b5b83861115613e2157613e20613df7565b5b6001850283019150848603905094509492505050565b600082905092915050565b60007fffffffffffffffffffffffffffffffffffffffff00000000000000000000000082169050919050565b600082821b905092915050565b6000613e878383613e37565b82613e928135613e42565b92506014821015613ed257613ecd7fffffffffffffffffffffffffffffffffffffffff00000000000000000000000083601403600802613e6e565b831692505b505092915050565b6000613ee582612a84565b9150613ef083612a84565b9250828201905080821115613f0857613f0761336d565b5b92915050565b7f4e487b7100000000000000000000000000000000000000000000000000000000600052603260045260246000fd5b7f537472696e67733a20686578206c656e67746820696e73756666696369656e74600082015250565b6000613f73602083613039565b9150613f7e82613f3d565b602082019050919050565b60006020820190508181036000830152613fa281613f66565b905091905056fea2646970667358221220e296a2446c4850584a7f25e0750d7c517c6d6d8c0db0d82efe72f7dfbbb927f464736f6c63430008130033",
  "linkReferences": {},
  "deployedLinkReferences": {}
}