{
  "_format": "hh-sol-artifact-1",
  "contractName": "Escrow",
  "sourceName": "contracts/Escrow.sol",
  "abi": [
    {
      "inputs": [
        {
          "internalType": "address",
          "name": "trustedForwarder",
          "type": "address"
        },
        {
          "internalType": "address",
          "name": "defaultAdmin",
          "type": "address"
        },
        {
          "internalType": "address",
          "name": "verifier",
          "type": "address"
        },
        {
          "internalType": "address",
          "name": "carNFTAddress",
          "type": "address"
        }
      ],
      "stateMutability": "nonpayable",
      "type": "constructor"
    },
    {
      "anonymous": false,
      "inputs": [
        {
          "indexed": true,
          "internalType": "uint256",
          "name": "dealId",
          "type": "uint256"
        },
        {
          "indexed": true,
          "internalType": "address",
          "name": "canceller",
          "type": "address"
        }
      ],
      "name": "EscrowCancelled",
      "type": "event"
    },
    {
      "anonymous": false,
      "inputs": [
        {
          "indexed": true,
          "internalType": "uint256",
          "name": "dealId",
          "type": "uint256"
        },
        {
          "indexed": true,
          "internalType": "uint256",
          "name": "tokenId",
          "type": "uint256"
        },
        {
          "indexed": true,
          "internalType": "address",
          "name": "seller",
          "type": "address"
        },
        {
          "indexed": false,
          "internalType": "address",
          "name": "buyer",
          "type": "address"
        },
        {
          "indexed": false,
          "internalType": "uint256",
          "name": "amount",
          "type": "uint256"
        }
      ],
      "name": "EscrowCreated",
      "type": "event"
    },
    {
      "anonymous": false,
      "inputs": [
        {
          "indexed": true,
          "internalType": "uint256",
          "name": "dealId",
          "type": "uint256"
        },
        {
          "indexed": true,
          "internalType": "address",
          "name": "disputer",
          "type": "address"
        }
      ],
      "name": "EscrowDisputed",
      "type": "event"
    },
    {
      "anonymous": false,
      "inputs": [
        {
          "indexed": true,
          "internalType": "uint256",
          "name": "dealId",
          "type": "uint256"
        },
        {
          "indexed": true,
          "internalType": "address",
          "name": "verifier",
          "type": "address"
        }
      ],
      "name": "EscrowReleased",
      "type": "event"
    },
    {
      "anonymous": false,
      "inputs": [
        {
          "indexed": true,
          "internalType": "bytes32",
          "name": "role",
          "type": "bytes32"
        },
        {
          "indexed": true,
          "internalType": "bytes32",
          "name": "previousAdminRole",
          "type": "bytes32"
        },
        {
          "indexed": true,
          "internalType": "bytes32",
          "name": "newAdminRole",
          "type": "bytes32"
        }
      ],
      "name": "RoleAdminChanged",
      "type": "event"
    },
    {
      "anonymous": false,
      "inputs": [
        {
          "indexed": true,
          "internalType": "bytes32",
          "name": "role",
          "type": "bytes32"
        },
        {
          "indexed": true,
          "internalType": "address",
          "name": "account",
          "type": "address"
        },
        {
          "indexed": true,
          "internalType": "address",
          "name": "sender",
          "type": "address"
        }
      ],
      "name": "RoleGranted",
      "type": "event"
    },
    {
      "anonymous": false,
      "inputs": [
        {
          "indexed": true,
          "internalType": "bytes32",
          "name": "role",
          "type": "bytes32"
        },
        {
          "indexed": true,
          "internalType": "address",
          "name": "account",
          "type": "address"
        },
        {
          "indexed": true,
          "internalType": "address",
          "name": "sender",
          "type": "address"
        }
      ],
      "name": "RoleRevoked",
      "type": "event"
    },
    {
      "anonymous": false,
      "inputs": [
        {
          "indexed": true,
          "internalType": "address",
          "name": "oldForwarder",
          "type": "address"
        },
        {
          "indexed": true,
          "internalType": "address",
          "name": "newForwarder",
          "type": "address"
        }
      ],
      "name": "TrustedForwarderUpdated",
      "type": "event"
    },
    {
      "inputs": [],
      "name": "ADMIN_ROLE",
      "outputs": [
        {
          "internalType": "bytes32",
          "name": "",
          "type": "bytes32"
        }
      ],
      "stateMutability": "view",
      "type": "function"
    },
    {
      "inputs": [],
      "name": "DEFAULT_ADMIN_ROLE",
      "outputs": [
        {
          "internalType": "bytes32",
          "name": "",
          "type": "bytes32"
        }
      ],
      "stateMutability": "view",
      "type": "function"
    },
    {
      "inputs": [],
      "name": "VERIFIER_ROLE",
      "outputs": [
        {
          "internalType": "bytes32",
          "name": "",
          "type": "bytes32"
        }
      ],
      "stateMutability": "view",
      "type": "function"
    },
    {
      "inputs": [
        {
          "internalType": "uint256",
          "name": "dealId",
          "type": "uint256"
        }
      ],
      "name": "cancelEscrow",
      "outputs": [],
      "stateMutability": "nonpayable",
      "type": "function"
    },
    {
      "inputs": [],
      "name": "carNFT",
      "outputs": [
        {
          "internalType": "contract CarNFT",
          "name": "",
          "type": "address"
        }
      ],
      "stateMutability": "view",
      "type": "function"
    },
    {
      "inputs": [
        {
          "internalType": "uint256",
          "name": "tokenId",
          "type": "uint256"
        },
        {
          "internalType": "address",
          "name": "seller",
          "type": "address"
        },
        {
          "internalType": "address",
          "name": "buyer",
          "type": "address"
        },
        {
          "internalType": "uint256",
          "name": "amount",
          "type": "uint256"
        }
      ],
      "name": "createEscrow",
      "outputs": [
        {
          "internalType": "uint256",
          "name": "",
          "type": "uint256"
        }
      ],
      "stateMutability": "payable",
      "type": "function"
    },
    {
      "inputs": [
        {
          "internalType": "uint256",
          "name": "dealId",
          "type": "uint256"
        },
        {
          "internalType": "string",
          "name": "notes",
          "type": "string"
        }
      ],
      "name": "disputeEscrow",
      "outputs": [],
      "stateMutability": "nonpayable",
      "type": "function"
    },
    {
      "inputs": [],
      "name": "emergencyWithdraw",
      "outputs": [],
      "stateMutability": "nonpayable",
      "type": "function"
    },
    {
      "inputs": [
        {
          "internalType": "uint256",
          "name": "",
          "type": "uint256"
        }
      ],
      "name": "escrowDeals",
      "outputs": [
        {
          "internalType": "uint256",
          "name": "dealId",
          "type": "uint256"
        },
        {
          "internalType": "uint256",
          "name": "tokenId",
          "type": "uint256"
        },
        {
          "internalType": "address",
          "name": "seller",
          "type": "address"
        },
        {
          "internalType": "address",
          "name": "buyer",
          "type": "address"
        },
        {
          "internalType": "uint256",
          "name": "amount",
          "type": "uint256"
        },
        {
          "internalType": "enum Escrow.EscrowState",
          "name": "state",
          "type": "uint8"
        },
        {
          "internalType": "uint256",
          "name": "createdAt",
          "type": "uint256"
        },
        {
          "internalType": "uint256",
          "name": "releasedAt",
          "type": "uint256"
        },
        {
          "internalType": "string",
          "name": "notes",
          "type": "string"
        }
      ],
      "stateMutability": "view",
      "type": "function"
    },
    {
      "inputs": [],
      "name": "getActiveDeals",
      "outputs": [
        {
          "internalType": "uint256[]",
          "name": "",
          "type": "uint256[]"
        }
      ],
      "stateMutability": "view",
      "type": "function"
    },
    {
      "inputs": [],
      "name": "getBalance",
      "outputs": [
        {
          "internalType": "uint256",
          "name": "",
          "type": "uint256"
        }
      ],
      "stateMutability": "view",
      "type": "function"
    },
    {
      "inputs": [
        {
          "internalType": "uint256",
          "name": "tokenId",
          "type": "uint256"
        }
      ],
      "name": "getDealByToken",
      "outputs": [
        {
          "components": [
            {
              "internalType": "uint256",
              "name": "dealId",
              "type": "uint256"
            },
            {
              "internalType": "uint256",
              "name": "tokenId",
              "type": "uint256"
            },
            {
              "internalType": "address",
              "name": "seller",
              "type": "address"
            },
            {
              "internalType": "address",
              "name": "buyer",
              "type": "address"
            },
            {
              "internalType": "uint256",
              "name": "amount",
              "type": "uint256"
            },
            {
              "internalType": "enum Escrow.EscrowState",
              "name": "state",
              "type": "uint8"
            },
            {
              "internalType": "uint256",
              "name": "createdAt",
              "type": "uint256"
            },
            {
              "internalType": "uint256",
              "name": "releasedAt",
              "type": "uint256"
            },
            {
              "internalType": "string",
              "name": "notes",
              "type": "string"
            }
          ],
          "internalType": "struct Escrow.EscrowDeal",
          "name": "",
          "type": "tuple"
        }
      ],
      "stateMutability": "view",
      "type": "function"
    },
    {
      "inputs": [
        {
          "internalType": "address",
          "name": "account",
          "type": "address"
        }
      ],
      "name": "getDealsByAddress",
      "outputs": [
        {
          "internalType": "uint256[]",
          "name": "",
          "type": "uint256[]"
        }
      ],
      "stateMutability": "view",
      "type": "function"
    },
    {
      "inputs": [
        {
          "internalType": "uint256",
          "name": "dealId",
          "type": "uint256"
        }
      ],
      "name": "getEscrowDeal",
      "outputs": [
        {
          "components": [
            {
              "internalType": "uint256",
              "name": "dealId",
              "type": "uint256"
            },
            {
              "internalType": "uint256",
              "name": "tokenId",
              "type": "uint256"
            },
            {
              "internalType": "address",
              "name": "seller",
              "type": "address"
            },
            {
              "internalType": "address",
              "name": "buyer",
              "type": "address"
            },
            {
              "internalType": "uint256",
              "name": "amount",
              "type": "uint256"
            },
            {
              "internalType": "enum Escrow.EscrowState",
              "name": "state",
              "type": "uint8"
            },
            {
              "internalType": "uint256",
              "name": "createdAt",
              "type": "uint256"
            },
            {
              "internalType": "uint256",
              "name": "releasedAt",
              "type": "uint256"
            },
            {
              "internalType": "string",
              "name": "notes",
              "type": "string"
            }
          ],
          "internalType": "struct Escrow.EscrowDeal",
          "name": "",
          "type": "tuple"
        }
      ],
      "stateMutability": "view",
      "type": "function"
    },
    {
      "inputs": [
        {
          "internalType": "bytes32",
          "name": "role",
          "type": "bytes32"
        }
      ],
      "name": "getRoleAdmin",
      "outputs": [
        {
          "internalType": "bytes32",
          "name": "",
          "type": "bytes32"
        }
      ],
      "stateMutability": "view",
      "type": "function"
    },
    {
      "inputs": [],
      "name": "getTrustedForwarder",
      "outputs": [
        {
          "internalType": "address",
          "name": "",
          "type": "address"
        }
      ],
      "stateMutability": "view",
      "type": "function"
    },
    {
      "inputs": [
        {
          "internalType": "bytes32",
          "name": "role",
          "type": "bytes32"
        },
        {
          "internalType": "address",
          "name": "account",
          "type": "address"
        }
      ],
      "name": "grantRole",
      "outputs": [],
      "stateMutability": "nonpayable",
      "type": "function"
    },
    {
      "inputs": [
        {
          "internalType": "bytes32",
          "name": "role",
          "type": "bytes32"
        },
        {
          "internalType": "address",
          "name": "account",
          "type": "address"
        }
      ],
      "name": "hasRole",
      "outputs": [
        {
          "internalType": "bool",
          "name": "",
          "type": "bool"
        }
      ],
      "stateMutability": "view",
      "type": "function"
    },
    {
      "inputs": [
        {
          "internalType": "uint256",
          "name": "tokenId",
          "type": "uint256"
        }
      ],
      "name": "isTokenInEscrow",
      "outputs": [
        {
          "internalType": "bool",
          "name": "",
          "type": "bool"
        }
      ],
      "stateMutability": "view",
      "type": "function"
    },
    {
      "inputs": [
        {
          "internalType": "address",
          "name": "forwarder",
          "type": "address"
        }
      ],
      "name": "isTrustedForwarder",
      "outputs": [
        {
          "internalType": "bool",
          "name": "",
          "type": "bool"
        }
      ],
      "stateMutability": "view",
      "type": "function"
    },
    {
      "inputs": [
        {
          "internalType": "uint256",
          "name": "dealId",
          "type": "uint256"
        }
      ],
      "name": "releaseEscrow",
      "outputs": [],
      "stateMutability": "nonpayable",
      "type": "function"
    },
    {
      "inputs": [
        {
          "internalType": "bytes32",
          "name": "role",
          "type": "bytes32"
        },
        {
          "internalType": "address",
          "name": "account",
          "type": "address"
        }
      ],
      "name": "renounceRole",
      "outputs": [],
      "stateMutability": "nonpayable",
      "type": "function"
    },
    {
      "inputs": [
        {
          "internalType": "uint256",
          "name": "dealId",
          "type": "uint256"
        },
        {
          "internalType": "bool",
          "name": "toBuyer",
          "type": "bool"
        }
      ],
      "name": "resolveDispute",
      "outputs": [],
      "stateMutability": "nonpayable",
      "type": "function"
    },
    {
      "inputs": [
        {
          "internalType": "bytes32",
          "name": "role",
          "type": "bytes32"
        },
        {
          "internalType": "address",
          "name": "account",
          "type": "address"
        }
      ],
      "name": "revokeRole",
      "outputs": [],
      "stateMutability": "nonpayable",
      "type": "function"
    },
    {
      "inputs": [
        {
          "internalType": "bytes4",
          "name": "interfaceId",
          "type": "bytes4"
        }
      ],
      "name": "supportsInterface",
      "outputs": [
        {
          "internalType": "bool",
          "name": "",
          "type": "bool"
        }
      ],
      "stateMutability": "view",
      "type": "function"
    },
    {
      "inputs": [
        {
          "internalType": "uint256",
          "name": "",
          "type": "uint256"
        }
      ],
      "name": "tokenToDeal",
      "outputs": [
        {
          "internalType": "uint256",
          "name": "",
          "type": "uint256"
        }
      ],
      "stateMutability": "view",
      "type": "function"
    },
    {
      "inputs": [],
      "name": "trustedForwarderAddress",
      "outputs": [
        {
          "internalType": "address",
          "name": "",
          "type": "address"
        }
      ],
      "stateMutability": "view",
      "type": "function"
    },
    {
      "stateMutability": "payable",
      "type": "receive"
    }
  ],
  "bytecode": "0x60c060405260016003553480156200001657600080fd5b50604051620041873803806200418783398181016040528101906200003c919062000507565b8380600180819055508073ffffffffffffffffffffffffffffffffffffffff1660808173ffffffffffffffffffffffffffffffffffffffff16815250505080600260006101000a81548173ffffffffffffffffffffffffffffffffffffffff021916908373ffffffffffffffffffffffffffffffffffffffff16021790555050600073ffffffffffffffffffffffffffffffffffffffff168173ffffffffffffffffffffffffffffffffffffffff16036200012e576040517f08c379a00000000000000000000000000000000000000000000000000000000081526004016200012590620005da565b60405180910390fd5b620001436000801b84620001e560201b60201c565b620001757fa49807205ce4d355092ef5a8a18f56e8913cf4a201fbe287825b095693c2177584620001e560201b60201c565b620001a77f0ce23c3e399818cfee81a7ab0880f714e53d7672b08df0fa62f2843416e1ea0983620001e560201b60201c565b8073ffffffffffffffffffffffffffffffffffffffff1660a08173ffffffffffffffffffffffffffffffffffffffff16815250505050505062000765565b620001f78282620002d660201b60201c565b620002d257600160008084815260200190815260200160002060000160008373ffffffffffffffffffffffffffffffffffffffff1673ffffffffffffffffffffffffffffffffffffffff16815260200190815260200160002060006101000a81548160ff021916908315150217905550620002776200034060201b60201c565b73ffffffffffffffffffffffffffffffffffffffff168173ffffffffffffffffffffffffffffffffffffffff16837f2f8788117e7eff1d82e926ec794901d17c78024a50270940304540a733656f0d60405160405180910390a45b5050565b600080600084815260200190815260200160002060000160008373ffffffffffffffffffffffffffffffffffffffff1673ffffffffffffffffffffffffffffffffffffffff16815260200190815260200160002060009054906101000a900460ff16905092915050565b6000620003526200035760201b60201c565b905090565b6000620003696200036e60201b60201c565b905090565b6000806000369050905060006200038a6200040460201b60201c565b90506200039d336200041b60201b60201c565b8015620003aa5750808210155b15620003ec576000368284620003c1919062000635565b908092620003d2939291906200067a565b90620003df9190620006ff565b60601c9250505062000401565b620003fc6200047560201b60201c565b925050505b90565b6000620004166200047d60201b60201c565b905090565b6000600260009054906101000a900473ffffffffffffffffffffffffffffffffffffffff1673ffffffffffffffffffffffffffffffffffffffff168273ffffffffffffffffffffffffffffffffffffffff16149050919050565b600033905090565b60006200048f6200049460201b60201c565b905090565b60006014905090565b600080fd5b600073ffffffffffffffffffffffffffffffffffffffff82169050919050565b6000620004cf82620004a2565b9050919050565b620004e181620004c2565b8114620004ed57600080fd5b50565b6000815190506200050181620004d6565b92915050565b600080600080608085870312156200052457620005236200049d565b5b60006200053487828801620004f0565b94505060206200054787828801620004f0565b93505060406200055a87828801620004f0565b92505060606200056d87828801620004f0565b91505092959194509250565b600082825260208201905092915050565b7f457363726f773a20496e76616c6964204361724e465420616464726573730000600082015250565b6000620005c2601e8362000579565b9150620005cf826200058a565b602082019050919050565b60006020820190508181036000830152620005f581620005b3565b9050919050565b6000819050919050565b7f4e487b7100000000000000000000000000000000000000000000000000000000600052601160045260246000fd5b60006200064282620005fc565b91506200064f83620005fc565b92508282039050818111156200066a576200066962000606565b5b92915050565b600080fd5b600080fd5b6000808585111562000691576200069062000670565b5b83861115620006a557620006a462000675565b5b6001850283019150848603905094509492505050565b600082905092915050565b60007fffffffffffffffffffffffffffffffffffffffff00000000000000000000000082169050919050565b600082821b905092915050565b60006200070d8383620006bb565b826200071a8135620006c6565b925060148210156200075d57620007587fffffffffffffffffffffffffffffffffffffffff00000000000000000000000083601403600802620006f2565b831692505b505092915050565b60805160a0516139ea6200079d6000396000818161120a01528181611543015281816116c101526118ac0152600050506139ea6000f3fe6080604052600436106101a05760003560e01c806386f0423e116100ec578063db2e21bc1161008a578063ed65316411610064578063ed65316414610613578063f2f17bf51461063c578063f3e31f8414610667578063fe51c931146106a4576101a7565b8063db2e21bc146105a8578063e0182436146105bf578063e7705db6146105e8576101a7565b8063a217fddf116100c6578063a217fddf146104ec578063b28b3fe814610517578063ce1b815f14610554578063d547741f1461057f576101a7565b806386f0423e1461045b57806391d14854146104865780639f5644fd146104c3576101a7565b806334b25ee2116101595780636184dd92116101335780636184dd921461038b5780637267f721146103c857806375b238fc146104055780638447dc0814610430576101a7565b806334b25ee2146102fc57806336568abe14610325578063572b6c051461034e576101a7565b806301ffc9a7146101ac57806311d4475e146101e957806312065fe0146102265780631f2e119314610251578063248a9ca3146102965780632f2ff15d146102d3576101a7565b366101a757005b600080fd5b3480156101b857600080fd5b506101d360048036038101906101ce9190612377565b6106d4565b6040516101e091906123bf565b60405180910390f35b3480156101f557600080fd5b50610210600480360381019061020b9190612410565b61074e565b60405161021d9190612659565b60405180910390f35b34801561023257600080fd5b5061023b610940565b604051610248919061268a565b60405180910390f35b34801561025d57600080fd5b5061027860048036038101906102739190612410565b610948565b60405161028d9998979695949392919061270d565b60405180910390f35b3480156102a257600080fd5b506102bd60048036038101906102b891906127d7565b610a6b565b6040516102ca9190612813565b60405180910390f35b3480156102df57600080fd5b506102fa60048036038101906102f5919061285a565b610a8a565b005b34801561030857600080fd5b50610323600480360381019061031e91906128c6565b610aab565b005b34801561033157600080fd5b5061034c6004803603810190610347919061285a565b610b10565b005b34801561035a57600080fd5b5061037560048036038101906103709190612906565b610b93565b60405161038291906123bf565b60405180910390f35b34801561039757600080fd5b506103b260048036038101906103ad9190612410565b610bed565b6040516103bf91906123bf565b60405180910390f35b3480156103d457600080fd5b506103ef60048036038101906103ea9190612410565b610c0d565b6040516103fc9190612659565b60405180910390f35b34801561041157600080fd5b5061041a610de6565b6040516104279190612813565b60405180910390f35b34801561043c57600080fd5b50610445610e0a565b60405161045291906129e2565b60405180910390f35b34801561046757600080fd5b50610470610e5b565b60405161047d9190612a04565b60405180910390f35b34801561049257600080fd5b506104ad60048036038101906104a8919061285a565b610e81565b6040516104ba91906123bf565b60405180910390f35b3480156104cf57600080fd5b506104ea60048036038101906104e59190612a84565b610eeb565b005b3480156104f857600080fd5b50610501610f2e565b60405161050e9190612813565b60405180910390f35b34801561052357600080fd5b5061053e60048036038101906105399190612906565b610f35565b60405161054b91906129e2565b60405180910390f35b34801561056057600080fd5b50610569610f88565b6040516105769190612a04565b60405180910390f35b34801561058b57600080fd5b506105a660048036038101906105a1919061285a565b610fb2565b005b3480156105b457600080fd5b506105bd610fd3565b005b3480156105cb57600080fd5b506105e660048036038101906105e19190612410565b611047565b005b3480156105f457600080fd5b506105fd6113c4565b60405161060a9190612813565b60405180910390f35b34801561061f57600080fd5b5061063a60048036038101906106359190612410565b6113e8565b005b34801561064857600080fd5b506106516116bf565b60405161065e9190612b43565b60405180910390f35b34801561067357600080fd5b5061068e60048036038101906106899190612410565b6116e3565b60405161069b919061268a565b60405180910390f35b6106be60048036038101906106b99190612b5e565b6116fb565b6040516106cb919061268a565b60405180910390f35b60007f7965db0b000000000000000000000000000000000000000000000000000000007bffffffffffffffffffffffffffffffffffffffffffffffffffffffff1916827bffffffffffffffffffffffffffffffffffffffffffffffffffffffff19161480610747575061074682611c44565b5b9050919050565b61075661228b565b600060056000848152602001908152602001600020549050600460008281526020019081526020016000206040518061012001604052908160008201548152602001600182015481526020016002820160009054906101000a900473ffffffffffffffffffffffffffffffffffffffff1673ffffffffffffffffffffffffffffffffffffffff1673ffffffffffffffffffffffffffffffffffffffff1681526020016003820160009054906101000a900473ffffffffffffffffffffffffffffffffffffffff1673ffffffffffffffffffffffffffffffffffffffff1673ffffffffffffffffffffffffffffffffffffffff168152602001600482015481526020016005820160009054906101000a900460ff16600481111561087c5761087b61248d565b5b600481111561088e5761088d61248d565b5b815260200160068201548152602001600782015481526020016008820180546108b690612bf4565b80601f01602080910402602001604051908101604052809291908181526020018280546108e290612bf4565b801561092f5780601f106109045761010080835404028352916020019161092f565b820191906000526020600020905b81548152906001019060200180831161091257829003601f168201915b505050505081525050915050919050565b600047905090565b60046020528060005260406000206000915090508060000154908060010154908060020160009054906101000a900473ffffffffffffffffffffffffffffffffffffffff16908060030160009054906101000a900473ffffffffffffffffffffffffffffffffffffffff16908060040154908060050160009054906101000a900460ff16908060060154908060070154908060080180546109e890612bf4565b80601f0160208091040260200160405190810160405280929190818152602001828054610a1490612bf4565b8015610a615780601f10610a3657610100808354040283529160200191610a61565b820191906000526020600020905b815481529060010190602001808311610a4457829003601f168201915b5050505050905089565b6000806000838152602001908152602001600020600101549050919050565b610a9382610a6b565b610a9c81611cae565b610aa68383611cc2565b505050565b7fa49807205ce4d355092ef5a8a18f56e8913cf4a201fbe287825b095693c21775610ad581611cae565b6040517f08c379a0000000000000000000000000000000000000000000000000000000008152600401610b0790612c97565b60405180910390fd5b610b18611da2565b73ffffffffffffffffffffffffffffffffffffffff168173ffffffffffffffffffffffffffffffffffffffff1614610b85576040517f08c379a0000000000000000000000000000000000000000000000000000000008152600401610b7c90612d29565b60405180910390fd5b610b8f8282611db1565b5050565b6000600260009054906101000a900473ffffffffffffffffffffffffffffffffffffffff1673ffffffffffffffffffffffffffffffffffffffff168273ffffffffffffffffffffffffffffffffffffffff16149050919050565b600080600560008481526020019081526020016000205414159050919050565b610c1561228b565b600460008381526020019081526020016000206040518061012001604052908160008201548152602001600182015481526020016002820160009054906101000a900473ffffffffffffffffffffffffffffffffffffffff1673ffffffffffffffffffffffffffffffffffffffff1673ffffffffffffffffffffffffffffffffffffffff1681526020016003820160009054906101000a900473ffffffffffffffffffffffffffffffffffffffff1673ffffffffffffffffffffffffffffffffffffffff1673ffffffffffffffffffffffffffffffffffffffff168152602001600482015481526020016005820160009054906101000a900460ff166004811115610d2357610d2261248d565b5b6004811115610d3557610d3461248d565b5b81526020016006820154815260200160078201548152602001600882018054610d5d90612bf4565b80601f0160208091040260200160405190810160405280929190818152602001828054610d8990612bf4565b8015610dd65780601f10610dab57610100808354040283529160200191610dd6565b820191906000526020600020905b815481529060010190602001808311610db957829003601f168201915b5050505050815250509050919050565b7fa49807205ce4d355092ef5a8a18f56e8913cf4a201fbe287825b095693c2177581565b6060600067ffffffffffffffff811115610e2757610e26612d49565b5b604051908082528060200260200182016040528015610e555781602001602082028036833780820191505090505b50905090565b600260009054906101000a900473ffffffffffffffffffffffffffffffffffffffff1681565b600080600084815260200190815260200160002060000160008373ffffffffffffffffffffffffffffffffffffffff1673ffffffffffffffffffffffffffffffffffffffff16815260200190815260200160002060009054906101000a900460ff16905092915050565b610ef3611e92565b6040517f08c379a0000000000000000000000000000000000000000000000000000000008152600401610f2590612dc4565b60405180910390fd5b6000801b81565b6060600067ffffffffffffffff811115610f5257610f51612d49565b5b604051908082528060200260200182016040528015610f805781602001602082028036833780820191505090505b509050919050565b6000600260009054906101000a900473ffffffffffffffffffffffffffffffffffffffff16905090565b610fbb82610a6b565b610fc481611cae565b610fce8383611db1565b505050565b7fa49807205ce4d355092ef5a8a18f56e8913cf4a201fbe287825b095693c21775610ffd81611cae565b3373ffffffffffffffffffffffffffffffffffffffff166108fc479081150290604051600060405180830381858888f19350505050158015611043573d6000803e3d6000fd5b5050565b61104f611e92565b60006004600083815260200190815260200160002090506110977fa49807205ce4d355092ef5a8a18f56e8913cf4a201fbe287825b095693c21775611092611da2565b610e81565b806110b357504262093a8082600601546110b19190612e13565b105b6110f2576040517f08c379a00000000000000000000000000000000000000000000000000000000081526004016110e990612e93565b60405180910390fd5b600060048111156111065761110561248d565b5b8160050160009054906101000a900460ff16600481111561112a5761112961248d565b5b148061116b5750600160048111156111455761114461248d565b5b8160050160009054906101000a900460ff1660048111156111695761116861248d565b5b145b6111aa576040517f08c379a00000000000000000000000000000000000000000000000000000000081526004016111a190612eff565b60405180910390fd5b60008160050160009054906101000a900460ff16905060038260050160006101000a81548160ff021916908360048111156111e8576111e761248d565b5b02179055506005600083600101548152602001908152602001600020600090557f000000000000000000000000000000000000000000000000000000000000000073ffffffffffffffffffffffffffffffffffffffff166323b872dd308460020160009054906101000a900473ffffffffffffffffffffffffffffffffffffffff1685600101546040518463ffffffff1660e01b815260040161128d93929190612f1f565b600060405180830381600087803b1580156112a757600080fd5b505af11580156112bb573d6000803e3d6000fd5b50505050600160048111156112d3576112d261248d565b5b8160048111156112e6576112e561248d565b5b1480156112f7575060008260040154115b1561136c578160030160009054906101000a900473ffffffffffffffffffffffffffffffffffffffff1673ffffffffffffffffffffffffffffffffffffffff166108fc83600401549081150290604051600060405180830381858888f1935050505015801561136a573d6000803e3d6000fd5b505b611374611da2565b73ffffffffffffffffffffffffffffffffffffffff16837f6f44c80719cb2f74bdbd68b7af10147acb9b52e2675ad02f9c87f0985995993860405160405180910390a350506113c1611ee1565b50565b7f0ce23c3e399818cfee81a7ab0880f714e53d7672b08df0fa62f2843416e1ea0981565b6113f0611e92565b7f0ce23c3e399818cfee81a7ab0880f714e53d7672b08df0fa62f2843416e1ea0961141a81611cae565b6000600460008481526020019081526020016000209050600160048111156114455761144461248d565b5b8160050160009054906101000a900460ff1660048111156114695761146861248d565b5b146114a9576040517f08c379a00000000000000000000000000000000000000000000000000000000081526004016114a090612fa2565b60405180910390fd5b60008160040154116114f0576040517f08c379a00000000000000000000000000000000000000000000000000000000081526004016114e79061300e565b60405180910390fd5b60028160050160006101000a81548160ff021916908360048111156115185761151761248d565b5b02179055504281600701819055506005600082600101548152602001908152602001600020600090557f000000000000000000000000000000000000000000000000000000000000000073ffffffffffffffffffffffffffffffffffffffff166323b872dd308360030160009054906101000a900473ffffffffffffffffffffffffffffffffffffffff1684600101546040518463ffffffff1660e01b81526004016115c693929190612f1f565b600060405180830381600087803b1580156115e057600080fd5b505af11580156115f4573d6000803e3d6000fd5b505050508060020160009054906101000a900473ffffffffffffffffffffffffffffffffffffffff1673ffffffffffffffffffffffffffffffffffffffff166108fc82600401549081150290604051600060405180830381858888f19350505050158015611666573d6000803e3d6000fd5b5061166f611da2565b73ffffffffffffffffffffffffffffffffffffffff16837fefc7f1f15becfaec7a3c17eec78be3fa7adb45698f26fcfd25efe1754c24233160405160405180910390a350506116bc611ee1565b50565b7f000000000000000000000000000000000000000000000000000000000000000081565b60056020528060005260406000206000915090505481565b6000611705611e92565b813414611747576040517f08c379a000000000000000000000000000000000000000000000000000000000815260040161173e9061307a565b60405180910390fd5b600073ffffffffffffffffffffffffffffffffffffffff168473ffffffffffffffffffffffffffffffffffffffff16036117b6576040517f08c379a00000000000000000000000000000000000000000000000000000000081526004016117ad906130e6565b60405180910390fd5b600073ffffffffffffffffffffffffffffffffffffffff168373ffffffffffffffffffffffffffffffffffffffff1603611825576040517f08c379a000000000000000000000000000000000000000000000000000000000815260040161181c90613152565b60405180910390fd5b8273ffffffffffffffffffffffffffffffffffffffff168473ffffffffffffffffffffffffffffffffffffffff1603611893576040517f08c379a000000000000000000000000000000000000000000000000000000000815260040161188a906131e4565b60405180910390fd5b3073ffffffffffffffffffffffffffffffffffffffff167f000000000000000000000000000000000000000000000000000000000000000073ffffffffffffffffffffffffffffffffffffffff16636352211e876040518263ffffffff1660e01b8152600401611903919061268a565b602060405180830381865afa158015611920573d6000803e3d6000fd5b505050506040513d601f19601f820116820180604052508101906119449190613219565b73ffffffffffffffffffffffffffffffffffffffff161461199a576040517f08c379a000000000000000000000000000000000000000000000000000000000815260040161199190613292565b60405180910390fd5b60006005600087815260200190815260200160002054146119f0576040517f08c379a00000000000000000000000000000000000000000000000000000000081526004016119e7906132fe565b60405180910390fd5b600060036000815480929190611a059061331e565b919050559050600080341115611a1a57600190505b6040518061012001604052808381526020018881526020018773ffffffffffffffffffffffffffffffffffffffff1681526020018673ffffffffffffffffffffffffffffffffffffffff168152602001858152602001826004811115611a8357611a8261248d565b5b8152602001428152602001600081526020016040518060200160405280600081525081525060046000848152602001908152602001600020600082015181600001556020820151816001015560408201518160020160006101000a81548173ffffffffffffffffffffffffffffffffffffffff021916908373ffffffffffffffffffffffffffffffffffffffff16021790555060608201518160030160006101000a81548173ffffffffffffffffffffffffffffffffffffffff021916908373ffffffffffffffffffffffffffffffffffffffff1602179055506080820151816004015560a08201518160050160006101000a81548160ff02191690836004811115611b9257611b9161248d565b5b021790555060c0820151816006015560e08201518160070155610100820151816008019081611bc19190613508565b509050508160056000898152602001908152602001600020819055508573ffffffffffffffffffffffffffffffffffffffff1687837fa96863da5e2cb895c2d739ef4b0a2bf93464d7bb3a3bf098c0af12c1b404c43a8888604051611c279291906135da565b60405180910390a48192505050611c3c611ee1565b949350505050565b60007f01ffc9a7000000000000000000000000000000000000000000000000000000007bffffffffffffffffffffffffffffffffffffffffffffffffffffffff1916827bffffffffffffffffffffffffffffffffffffffffffffffffffffffff1916149050919050565b611cbf81611cba611da2565b611eea565b50565b611ccc8282610e81565b611d9e57600160008084815260200190815260200160002060000160008373ffffffffffffffffffffffffffffffffffffffff1673ffffffffffffffffffffffffffffffffffffffff16815260200190815260200160002060006101000a81548160ff021916908315150217905550611d43611da2565b73ffffffffffffffffffffffffffffffffffffffff168173ffffffffffffffffffffffffffffffffffffffff16837f2f8788117e7eff1d82e926ec794901d17c78024a50270940304540a733656f0d60405160405180910390a45b5050565b6000611dac611f6f565b905090565b611dbb8282610e81565b15611e8e57600080600084815260200190815260200160002060000160008373ffffffffffffffffffffffffffffffffffffffff1673ffffffffffffffffffffffffffffffffffffffff16815260200190815260200160002060006101000a81548160ff021916908315150217905550611e33611da2565b73ffffffffffffffffffffffffffffffffffffffff168173ffffffffffffffffffffffffffffffffffffffff16837ff6391f5c32d9c69d2a47ea670b442974b53935d1edc7fd64eb21e047a839171b60405160405180910390a45b5050565b600260015403611ed7576040517f08c379a0000000000000000000000000000000000000000000000000000000008152600401611ece9061364f565b60405180910390fd5b6002600181905550565b60018081905550565b611ef48282610e81565b611f6b57611f0181611f7e565b611f0f8360001c6020611fab565b604051602001611f20929190613743565b6040516020818303038152906040526040517f08c379a0000000000000000000000000000000000000000000000000000000008152600401611f62919061377d565b60405180910390fd5b5050565b6000611f796121e7565b905090565b6060611fa48273ffffffffffffffffffffffffffffffffffffffff16601460ff16611fab565b9050919050565b606060006002836002611fbe919061379f565b611fc89190612e13565b67ffffffffffffffff811115611fe157611fe0612d49565b5b6040519080825280601f01601f1916602001820160405280156120135781602001600182028036833780820191505090505b5090507f30000000000000000000000000000000000000000000000000000000000000008160008151811061204b5761204a6137e1565b5b60200101907effffffffffffffffffffffffffffffffffffffffffffffffffffffffffffff1916908160001a9053507f7800000000000000000000000000000000000000000000000000000000000000816001815181106120af576120ae6137e1565b5b60200101907effffffffffffffffffffffffffffffffffffffffffffffffffffffffffffff1916908160001a905350600060018460026120ef919061379f565b6120f99190612e13565b90505b6001811115612199577f3031323334353637383961626364656600000000000000000000000000000000600f86166010811061213b5761213a6137e1565b5b1a60f81b828281518110612152576121516137e1565b5b60200101907effffffffffffffffffffffffffffffffffffffffffffffffffffffffffffff1916908160001a905350600485901c94508061219290613810565b90506120fc565b50600084146121dd576040517f08c379a00000000000000000000000000000000000000000000000000000000081526004016121d490613885565b60405180910390fd5b8091505092915050565b6000806000369050905060006121fb61225c565b905061220633610b93565b80156122125750808210155b1561224c57600036828461222691906138a5565b908092612235939291906138e3565b906122409190613955565b60601c92505050612259565b61225461226b565b925050505b90565b6000612266612273565b905090565b600033905090565b600061227d612282565b905090565b60006014905090565b6040518061012001604052806000815260200160008152602001600073ffffffffffffffffffffffffffffffffffffffff168152602001600073ffffffffffffffffffffffffffffffffffffffff16815260200160008152602001600060048111156122fa576122f961248d565b5b81526020016000815260200160008152602001606081525090565b600080fd5b600080fd5b60007fffffffff0000000000000000000000000000000000000000000000000000000082169050919050565b6123548161231f565b811461235f57600080fd5b50565b6000813590506123718161234b565b92915050565b60006020828403121561238d5761238c612315565b5b600061239b84828501612362565b91505092915050565b60008115159050919050565b6123b9816123a4565b82525050565b60006020820190506123d460008301846123b0565b92915050565b6000819050919050565b6123ed816123da565b81146123f857600080fd5b50565b60008135905061240a816123e4565b92915050565b60006020828403121561242657612425612315565b5b6000612434848285016123fb565b91505092915050565b612446816123da565b82525050565b600073ffffffffffffffffffffffffffffffffffffffff82169050919050565b60006124778261244c565b9050919050565b6124878161246c565b82525050565b7f4e487b7100000000000000000000000000000000000000000000000000000000600052602160045260246000fd5b600581106124cd576124cc61248d565b5b50565b60008190506124de826124bc565b919050565b60006124ee826124d0565b9050919050565b6124fe816124e3565b82525050565b600081519050919050565b600082825260208201905092915050565b60005b8381101561253e578082015181840152602081019050612523565b60008484015250505050565b6000601f19601f8301169050919050565b600061256682612504565b612570818561250f565b9350612580818560208601612520565b6125898161254a565b840191505092915050565b6000610120830160008301516125ad600086018261243d565b5060208301516125c0602086018261243d565b5060408301516125d3604086018261247e565b5060608301516125e6606086018261247e565b5060808301516125f9608086018261243d565b5060a083015161260c60a08601826124f5565b5060c083015161261f60c086018261243d565b5060e083015161263260e086018261243d565b5061010083015184820361010086015261264c828261255b565b9150508091505092915050565b600060208201905081810360008301526126738184612594565b905092915050565b612684816123da565b82525050565b600060208201905061269f600083018461267b565b92915050565b6126ae8161246c565b82525050565b6126bd816124e3565b82525050565b600082825260208201905092915050565b60006126df82612504565b6126e981856126c3565b93506126f9818560208601612520565b6127028161254a565b840191505092915050565b600061012082019050612723600083018c61267b565b612730602083018b61267b565b61273d604083018a6126a5565b61274a60608301896126a5565b612757608083018861267b565b61276460a08301876126b4565b61277160c083018661267b565b61277e60e083018561267b565b81810361010083015261279181846126d4565b90509a9950505050505050505050565b6000819050919050565b6127b4816127a1565b81146127bf57600080fd5b50565b6000813590506127d1816127ab565b92915050565b6000602082840312156127ed576127ec612315565b5b60006127fb848285016127c2565b91505092915050565b61280d816127a1565b82525050565b60006020820190506128286000830184612804565b92915050565b6128378161246c565b811461284257600080fd5b50565b6000813590506128548161282e565b92915050565b6000806040838503121561287157612870612315565b5b600061287f858286016127c2565b925050602061289085828601612845565b9150509250929050565b6128a3816123a4565b81146128ae57600080fd5b50565b6000813590506128c08161289a565b92915050565b600080604083850312156128dd576128dc612315565b5b60006128eb858286016123fb565b92505060206128fc858286016128b1565b9150509250929050565b60006020828403121561291c5761291b612315565b5b600061292a84828501612845565b91505092915050565b600081519050919050565b600082825260208201905092915050565b6000819050602082019050919050565b600061296b838361243d565b60208301905092915050565b6000602082019050919050565b600061298f82612933565b612999818561293e565b93506129a48361294f565b8060005b838110156129d55781516129bc888261295f565b97506129c783612977565b9250506001810190506129a8565b5085935050505092915050565b600060208201905081810360008301526129fc8184612984565b905092915050565b6000602082019050612a1960008301846126a5565b92915050565b600080fd5b600080fd5b600080fd5b60008083601f840112612a4457612a43612a1f565b5b8235905067ffffffffffffffff811115612a6157612a60612a24565b5b602083019150836001820283011115612a7d57612a7c612a29565b5b9250929050565b600080600060408486031215612a9d57612a9c612315565b5b6000612aab868287016123fb565b935050602084013567ffffffffffffffff811115612acc57612acb61231a565b5b612ad886828701612a2e565b92509250509250925092565b6000819050919050565b6000612b09612b04612aff8461244c565b612ae4565b61244c565b9050919050565b6000612b1b82612aee565b9050919050565b6000612b2d82612b10565b9050919050565b612b3d81612b22565b82525050565b6000602082019050612b586000830184612b34565b92915050565b60008060008060808587031215612b7857612b77612315565b5b6000612b86878288016123fb565b9450506020612b9787828801612845565b9350506040612ba887828801612845565b9250506060612bb9878288016123fb565b91505092959194509250565b7f4e487b7100000000000000000000000000000000000000000000000000000000600052602260045260246000fd5b60006002820490506001821680612c0c57607f821691505b602082108103612c1f57612c1e612bc5565b5b50919050565b7f44697370757465207265736f6c7574696f6e206e6f7420696d706c656d656e7460008201527f6564000000000000000000000000000000000000000000000000000000000000602082015250565b6000612c816022836126c3565b9150612c8c82612c25565b604082019050919050565b60006020820190508181036000830152612cb081612c74565b9050919050565b7f416363657373436f6e74726f6c3a2063616e206f6e6c792072656e6f756e636560008201527f20726f6c657320666f722073656c660000000000000000000000000000000000602082015250565b6000612d13602f836126c3565b9150612d1e82612cb7565b604082019050919050565b60006020820190508181036000830152612d4281612d06565b9050919050565b7f4e487b7100000000000000000000000000000000000000000000000000000000600052604160045260246000fd5b7f44697370757465206e6f7420696d706c656d656e746564000000000000000000600082015250565b6000612dae6017836126c3565b9150612db982612d78565b602082019050919050565b60006020820190508181036000830152612ddd81612da1565b9050919050565b7f4e487b7100000000000000000000000000000000000000000000000000000000600052601160045260246000fd5b6000612e1e826123da565b9150612e29836123da565b9250828201905080821115612e4157612e40612de4565b5b92915050565b7f457363726f773a2043616e6e6f742063616e63656c206465616c000000000000600082015250565b6000612e7d601a836126c3565b9150612e8882612e47565b602082019050919050565b60006020820190508181036000830152612eac81612e70565b9050919050565b7f457363726f773a204465616c20616c7265616479207265736f6c766564000000600082015250565b6000612ee9601d836126c3565b9150612ef482612eb3565b602082019050919050565b60006020820190508181036000830152612f1881612edc565b9050919050565b6000606082019050612f3460008301866126a5565b612f4160208301856126a5565b612f4e604083018461267b565b949350505050565b7f457363726f773a204465616c206e6f742066756e646564000000000000000000600082015250565b6000612f8c6017836126c3565b9150612f9782612f56565b602082019050919050565b60006020820190508181036000830152612fbb81612f7f565b9050919050565b7f457363726f773a204e6f20616d6f756e7420746f2072656c6561736500000000600082015250565b6000612ff8601c836126c3565b915061300382612fc2565b602082019050919050565b6000602082019050818103600083015261302781612feb565b9050919050565b7f457363726f773a20496e636f7272656374207061796d656e7420616d6f756e74600082015250565b60006130646020836126c3565b915061306f8261302e565b602082019050919050565b6000602082019050818103600083015261309381613057565b9050919050565b7f457363726f773a20496e76616c69642073656c6c657220616464726573730000600082015250565b60006130d0601e836126c3565b91506130db8261309a565b602082019050919050565b600060208201905081810360008301526130ff816130c3565b9050919050565b7f457363726f773a20496e76616c69642062757965722061646472657373000000600082015250565b600061313c601d836126c3565b915061314782613106565b602082019050919050565b6000602082019050818103600083015261316b8161312f565b9050919050565b7f457363726f773a2053656c6c657220616e642062757965722063616e6e6f742060008201527f6265207468652073616d65000000000000000000000000000000000000000000602082015250565b60006131ce602b836126c3565b91506131d982613172565b604082019050919050565b600060208201905081810360008301526131fd816131c1565b9050919050565b6000815190506132138161282e565b92915050565b60006020828403121561322f5761322e612315565b5b600061323d84828501613204565b91505092915050565b7f457363726f773a204e4654206e6f7420696e20657363726f7700000000000000600082015250565b600061327c6019836126c3565b915061328782613246565b602082019050919050565b600060208201905081810360008301526132ab8161326f565b9050919050565b7f457363726f773a20546f6b656e20616c726561647920696e20657363726f7700600082015250565b60006132e8601f836126c3565b91506132f3826132b2565b602082019050919050565b60006020820190508181036000830152613317816132db565b9050919050565b6000613329826123da565b91507fffffffffffffffffffffffffffffffffffffffffffffffffffffffffffffffff820361335b5761335a612de4565b5b600182019050919050565b60008190508160005260206000209050919050565b60006020601f8301049050919050565b600082821b905092915050565b6000600883026133c87fffffffffffffffffffffffffffffffffffffffffffffffffffffffffffffffff8261338b565b6133d2868361338b565b95508019841693508086168417925050509392505050565b60006134056134006133fb846123da565b612ae4565b6123da565b9050919050565b6000819050919050565b61341f836133ea565b61343361342b8261340c565b848454613398565b825550505050565b600090565b61344861343b565b613453818484613416565b505050565b5b818110156134775761346c600082613440565b600181019050613459565b5050565b601f8211156134bc5761348d81613366565b6134968461337b565b810160208510156134a5578190505b6134b96134b18561337b565b830182613458565b50505b505050565b600082821c905092915050565b60006134df600019846008026134c1565b1980831691505092915050565b60006134f883836134ce565b9150826002028217905092915050565b61351182612504565b67ffffffffffffffff81111561352a57613529612d49565b5b6135348254612bf4565b61353f82828561347b565b600060209050601f8311600181146135725760008415613560578287015190505b61356a85826134ec565b8655506135d2565b601f19841661358086613366565b60005b828110156135a857848901518255600182019150602085019450602081019050613583565b868310156135c557848901516135c1601f8916826134ce565b8355505b6001600288020188555050505b505050505050565b60006040820190506135ef60008301856126a5565b6135fc602083018461267b565b9392505050565b7f5265656e7472616e637947756172643a207265656e7472616e742063616c6c00600082015250565b6000613639601f836126c3565b915061364482613603565b602082019050919050565b600060208201905081810360008301526136688161362c565b9050919050565b600081905092915050565b7f416363657373436f6e74726f6c3a206163636f756e7420000000000000000000600082015250565b60006136b060178361366f565b91506136bb8261367a565b601782019050919050565b60006136d182612504565b6136db818561366f565b93506136eb818560208601612520565b80840191505092915050565b7f206973206d697373696e6720726f6c6520000000000000000000000000000000600082015250565b600061372d60118361366f565b9150613738826136f7565b601182019050919050565b600061374e826136a3565b915061375a82856136c6565b915061376582613720565b915061377182846136c6565b91508190509392505050565b6000602082019050818103600083015261379781846126d4565b905092915050565b60006137aa826123da565b91506137b5836123da565b92508282026137c3816123da565b915082820484148315176137da576137d9612de4565b5b5092915050565b7f4e487b7100000000000000000000000000000000000000000000000000000000600052603260045260246000fd5b600061381b826123da565b91506000820361382e5761382d612de4565b5b600182039050919050565b7f537472696e67733a20686578206c656e67746820696e73756666696369656e74600082015250565b600061386f6020836126c3565b915061387a82613839565b602082019050919050565b6000602082019050818103600083015261389e81613862565b9050919050565b60006138b0826123da565b91506138bb836123da565b92508282039050818111156138d3576138d2612de4565b5b92915050565b600080fd5b600080fd5b600080858511156138f7576138f66138d9565b5b83861115613908576139076138de565b5b6001850283019150848603905094509492505050565b600082905092915050565b60007fffffffffffffffffffffffffffffffffffffffff00000000000000000000000082169050919050565b6000613961838361391e565b8261396c8135613929565b925060148210156139ac576139a77fffffffffffffffffffffffffffffffffffffffff0000000000000000000000008360140360080261338b565b831692505b50509291505056fea264697066735822122089f8fc60dc9a9e307b0f58c5769aaba80aeb5d1ed739629a448471afe51a410664736f6c63430008130033",
  "linkReferences": {},
  "deployedLinkReferences": {}
}