{
  "_format": "hh-sol-artifact-1",
  "contractName": "GaslessMetaTx",
  "sourceName": "contracts/GaslessMetaTx.sol",
  "abi": [
    {
      "inputs": [
        {
          "internalType": "address",
          "name": "trustedForwarder",
          "type": "address"
        }
      ],
      "stateMutability": "nonpayable",
      "type": "constructor"
    },
    {
      "anonymous": false,
      "inputs": [
        {
          "indexed": true,
          "internalType": "address",
          "name": "oldForwarder",
          "type": "address"
        },
        {
          "indexed": true,
          "internalType": "address",
          "name": "newForwarder",
          "type": "address"
        }
      ],
      "name": "TrustedForwarderUpdated",
      "type": "event"
    },
    {
      "inputs": [],
      "name": "getTrustedForwarder",
      "outputs": [
        {
          "internalType": "address",
          "name": "",
          "type": "address"
        }
      ],
      "stateMutability": "view",
      "type": "function"
    },
    {
      "inputs": [
        {
          "internalType": "address",
          "name": "forwarder",
          "type": "address"
        }
      ],
      "name": "isTrustedForwarder",
      "outputs": [
        {
          "internalType": "bool",
          "name": "",
          "type": "bool"
        }
      ],
      "stateMutability": "view",
      "type": "function"
    },
    {
      "inputs": [],
      "name": "trustedForwarderAddress",
      "outputs": [
        {
          "internalType": "address",
          "name": "",
          "type": "address"
        }
      ],
      "stateMutability": "view",
      "type": "function"
    }
  ],
  "bytecode": "0x60a060405234801561001057600080fd5b506040516103d43803806103d483398181016040528101906100329190610111565b808073ffffffffffffffffffffffffffffffffffffffff1660808173ffffffffffffffffffffffffffffffffffffffff168152505050806000806101000a81548173ffffffffffffffffffffffffffffffffffffffff021916908373ffffffffffffffffffffffffffffffffffffffff1602179055505061013e565b600080fd5b600073ffffffffffffffffffffffffffffffffffffffff82169050919050565b60006100de826100b3565b9050919050565b6100ee816100d3565b81146100f957600080fd5b50565b60008151905061010b816100e5565b92915050565b600060208284031215610127576101266100ae565b5b6000610135848285016100fc565b91505092915050565b60805161027e6101566000396000505061027e6000f3fe608060405234801561001057600080fd5b50600436106100415760003560e01c8063572b6c051461004657806386f0423e14610076578063ce1b815f14610094575b600080fd5b610060600480360381019061005b91906101bb565b6100b2565b60405161006d9190610203565b60405180910390f35b61007e61010b565b60405161008b919061022d565b60405180910390f35b61009c61012f565b6040516100a9919061022d565b60405180910390f35b60008060009054906101000a900473ffffffffffffffffffffffffffffffffffffffff1673ffffffffffffffffffffffffffffffffffffffff168273ffffffffffffffffffffffffffffffffffffffff16149050919050565b60008054906101000a900473ffffffffffffffffffffffffffffffffffffffff1681565b60008060009054906101000a900473ffffffffffffffffffffffffffffffffffffffff16905090565b600080fd5b600073ffffffffffffffffffffffffffffffffffffffff82169050919050565b60006101888261015d565b9050919050565b6101988161017d565b81146101a357600080fd5b50565b6000813590506101b58161018f565b92915050565b6000602082840312156101d1576101d0610158565b5b60006101df848285016101a6565b91505092915050565b60008115159050919050565b6101fd816101e8565b82525050565b600060208201905061021860008301846101f4565b92915050565b6102278161017d565b82525050565b6000602082019050610242600083018461021e565b9291505056fea26469706673582212206f0cb2aebd363c384f662515367c914df214bc6a05940a408ba5bdd41fab213664736f6c63430008130033",
  "linkReferences": {},
  "deployedLinkReferences": {}
}