{
  "_format": "hh-sol-artifact-1",
  "contractName": "VerifierOracle",
  "sourceName": "contracts/VerifierOracle.sol",
  "abi": [
    {
      "inputs": [
        {
          "internalType": "address",
          "name": "trustedForwarder",
          "type": "address"
        },
        {
          "internalType": "address",
          "name": "defaultAdmin",
          "type": "address"
        },
        {
          "internalType": "address",
          "name": "verifier",
          "type": "address"
        },
        {
          "internalType": "address",
          "name": "carNFTAddress",
          "type": "address"
        },
        {
          "internalType": "address payable",
          "name": "escrowAddr",
          "type": "address"
        }
      ],
      "stateMutability": "nonpayable",
      "type": "constructor"
    },
    {
      "anonymous": false,
      "inputs": [
        {
          "indexed": true,
          "internalType": "uint256",
          "name": "dealId",
          "type": "uint256"
        },
        {
          "indexed": true,
          "internalType": "uint256",
          "name": "tokenId",
          "type": "uint256"
        },
        {
          "indexed": true,
          "internalType": "address",
          "name": "verifier",
          "type": "address"
        }
      ],
      "name": "EscrowReleased",
      "type": "event"
    },
    {
      "anonymous": false,
      "inputs": [
        {
          "indexed": true,
          "internalType": "bytes32",
          "name": "role",
          "type": "bytes32"
        },
        {
          "indexed": true,
          "internalType": "bytes32",
          "name": "previousAdminRole",
          "type": "bytes32"
        },
        {
          "indexed": true,
          "internalType": "bytes32",
          "name": "newAdminRole",
          "type": "bytes32"
        }
      ],
      "name": "RoleAdminChanged",
      "type": "event"
    },
    {
      "anonymous": false,
      "inputs": [
        {
          "indexed": true,
          "internalType": "bytes32",
          "name": "role",
          "type": "bytes32"
        },
        {
          "indexed": true,
          "internalType": "address",
          "name": "account",
          "type": "address"
        },
        {
          "indexed": true,
          "internalType": "address",
          "name": "sender",
          "type": "address"
        }
      ],
      "name": "RoleGranted",
      "type": "event"
    },
    {
      "anonymous": false,
      "inputs": [
        {
          "indexed": true,
          "internalType": "bytes32",
          "name": "role",
          "type": "bytes32"
        },
        {
          "indexed": true,
          "internalType": "address",
          "name": "account",
          "type": "address"
        },
        {
          "indexed": true,
          "internalType": "address",
          "name": "sender",
          "type": "address"
        }
      ],
      "name": "RoleRevoked",
      "type": "event"
    },
    {
      "anonymous": false,
      "inputs": [
        {
          "indexed": true,
          "internalType": "address",
          "name": "oldForwarder",
          "type": "address"
        },
        {
          "indexed": true,
          "internalType": "address",
          "name": "newForwarder",
          "type": "address"
        }
      ],
      "name": "TrustedForwarderUpdated",
      "type": "event"
    },
    {
      "anonymous": false,
      "inputs": [
        {
          "indexed": true,
          "internalType": "uint256",
          "name": "requestId",
          "type": "uint256"
        },
        {
          "indexed": true,
          "internalType": "uint256",
          "name": "tokenId",
          "type": "uint256"
        },
        {
          "indexed": true,
          "internalType": "address",
          "name": "verifier",
          "type": "address"
        },
        {
          "indexed": false,
          "internalType": "enum VerifierOracle.VerificationStatus",
          "name": "status",
          "type": "uint8"
        },
        {
          "indexed": false,
          "internalType": "string",
          "name": "notes",
          "type": "string"
        }
      ],
      "name": "VerificationCompleted",
      "type": "event"
    },
    {
      "anonymous": false,
      "inputs": [
        {
          "indexed": false,
          "internalType": "uint256",
          "name": "oldFee",
          "type": "uint256"
        },
        {
          "indexed": false,
          "internalType": "uint256",
          "name": "newFee",
          "type": "uint256"
        }
      ],
      "name": "VerificationFeeUpdated",
      "type": "event"
    },
    {
      "anonymous": false,
      "inputs": [
        {
          "indexed": true,
          "internalType": "uint256",
          "name": "requestId",
          "type": "uint256"
        },
        {
          "indexed": true,
          "internalType": "uint256",
          "name": "tokenId",
          "type": "uint256"
        },
        {
          "indexed": true,
          "internalType": "address",
          "name": "requester",
          "type": "address"
        },
        {
          "indexed": false,
          "internalType": "string",
          "name": "vin",
          "type": "string"
        }
      ],
      "name": "VerificationRequested",
      "type": "event"
    },
    {
      "inputs": [],
      "name": "ADMIN_ROLE",
      "outputs": [
        {
          "internalType": "bytes32",
          "name": "",
          "type": "bytes32"
        }
      ],
      "stateMutability": "view",
      "type": "function"
    },
    {
      "inputs": [],
      "name": "DEFAULT_ADMIN_ROLE",
      "outputs": [
        {
          "internalType": "bytes32",
          "name": "",
          "type": "bytes32"
        }
      ],
      "stateMutability": "view",
      "type": "function"
    },
    {
      "inputs": [],
      "name": "MAX_VERIFICATION_TIME",
      "outputs": [
        {
          "internalType": "uint256",
          "name": "",
          "type": "uint256"
        }
      ],
      "stateMutability": "view",
      "type": "function"
    },
    {
      "inputs": [],
      "name": "VERIFIER_ROLE",
      "outputs": [
        {
          "internalType": "bytes32",
          "name": "",
          "type": "bytes32"
        }
      ],
      "stateMutability": "view",
      "type": "function"
    },
    {
      "inputs": [
        {
          "internalType": "uint256[]",
          "name": "dealIds",
          "type": "uint256[]"
        }
      ],
      "name": "batchReleaseEscrows",
      "outputs": [],
      "stateMutability": "nonpayable",
      "type": "function"
    },
    {
      "inputs": [],
      "name": "carNFT",
      "outputs": [
        {
          "internalType": "contract CarNFT",
          "name": "",
          "type": "address"
        }
      ],
      "stateMutability": "view",
      "type": "function"
    },
    {
      "inputs": [
        {
          "internalType": "uint256",
          "name": "requestId",
          "type": "uint256"
        },
        {
          "internalType": "enum VerifierOracle.VerificationStatus",
          "name": "status",
          "type": "uint8"
        },
        {
          "internalType": "string",
          "name": "notes",
          "type": "string"
        }
      ],
      "name": "completeVerification",
      "outputs": [],
      "stateMutability": "nonpayable",
      "type": "function"
    },
    {
      "inputs": [],
      "name": "escrowAddress",
      "outputs": [
        {
          "internalType": "address payable",
          "name": "",
          "type": "address"
        }
      ],
      "stateMutability": "view",
      "type": "function"
    },
    {
      "inputs": [],
      "name": "getPendingRequests",
      "outputs": [
        {
          "internalType": "uint256[]",
          "name": "",
          "type": "uint256[]"
        }
      ],
      "stateMutability": "view",
      "type": "function"
    },
    {
      "inputs": [
        {
          "internalType": "uint256",
          "name": "tokenId",
          "type": "uint256"
        }
      ],
      "name": "getRequestByToken",
      "outputs": [
        {
          "components": [
            {
              "internalType": "uint256",
              "name": "requestId",
              "type": "uint256"
            },
            {
              "internalType": "uint256",
              "name": "tokenId",
              "type": "uint256"
            },
            {
              "internalType": "address",
              "name": "requester",
              "type": "address"
            },
            {
              "internalType": "string",
              "name": "vin",
              "type": "string"
            },
            {
              "internalType": "enum VerifierOracle.VerificationStatus",
              "name": "status",
              "type": "uint8"
            },
            {
              "internalType": "uint256",
              "name": "createdAt",
              "type": "uint256"
            },
            {
              "internalType": "uint256",
              "name": "verifiedAt",
              "type": "uint256"
            },
            {
              "internalType": "address",
              "name": "verifier",
              "type": "address"
            },
            {
              "internalType": "string",
              "name": "notes",
              "type": "string"
            },
            {
              "internalType": "string",
              "name": "documents",
              "type": "string"
            }
          ],
          "internalType": "struct VerifierOracle.VerificationRequest",
          "name": "",
          "type": "tuple"
        }
      ],
      "stateMutability": "view",
      "type": "function"
    },
    {
      "inputs": [
        {
          "internalType": "address",
          "name": "verifier",
          "type": "address"
        }
      ],
      "name": "getRequestsByVerifier",
      "outputs": [
        {
          "internalType": "uint256[]",
          "name": "",
          "type": "uint256[]"
        }
      ],
      "stateMutability": "view",
      "type": "function"
    },
    {
      "inputs": [
        {
          "internalType": "bytes32",
          "name": "role",
          "type": "bytes32"
        }
      ],
      "name": "getRoleAdmin",
      "outputs": [
        {
          "internalType": "bytes32",
          "name": "",
          "type": "bytes32"
        }
      ],
      "stateMutability": "view",
      "type": "function"
    },
    {
      "inputs": [],
      "name": "getTrustedForwarder",
      "outputs": [
        {
          "internalType": "address",
          "name": "",
          "type": "address"
        }
      ],
      "stateMutability": "view",
      "type": "function"
    },
    {
      "inputs": [
        {
          "internalType": "uint256",
          "name": "requestId",
          "type": "uint256"
        }
      ],
      "name": "getVerificationRequest",
      "outputs": [
        {
          "components": [
            {
              "internalType": "uint256",
              "name": "requestId",
              "type": "uint256"
            },
            {
              "internalType": "uint256",
              "name": "tokenId",
              "type": "uint256"
            },
            {
              "internalType": "address",
              "name": "requester",
              "type": "address"
            },
            {
              "internalType": "string",
              "name": "vin",
              "type": "string"
            },
            {
              "internalType": "enum VerifierOracle.VerificationStatus",
              "name": "status",
              "type": "uint8"
            },
            {
              "internalType": "uint256",
              "name": "createdAt",
              "type": "uint256"
            },
            {
              "internalType": "uint256",
              "name": "verifiedAt",
              "type": "uint256"
            },
            {
              "internalType": "address",
              "name": "verifier",
              "type": "address"
            },
            {
              "internalType": "string",
              "name": "notes",
              "type": "string"
            },
            {
              "internalType": "string",
              "name": "documents",
              "type": "string"
            }
          ],
          "internalType": "struct VerifierOracle.VerificationRequest",
          "name": "",
          "type": "tuple"
        }
      ],
      "stateMutability": "view",
      "type": "function"
    },
    {
      "inputs": [
        {
          "internalType": "bytes32",
          "name": "role",
          "type": "bytes32"
        },
        {
          "internalType": "address",
          "name": "account",
          "type": "address"
        }
      ],
      "name": "grantRole",
      "outputs": [],
      "stateMutability": "nonpayable",
      "type": "function"
    },
    {
      "inputs": [
        {
          "internalType": "bytes32",
          "name": "role",
          "type": "bytes32"
        },
        {
          "internalType": "address",
          "name": "account",
          "type": "address"
        }
      ],
      "name": "hasRole",
      "outputs": [
        {
          "internalType": "bool",
          "name": "",
          "type": "bool"
        }
      ],
      "stateMutability": "view",
      "type": "function"
    },
    {
      "inputs": [
        {
          "internalType": "address",
          "name": "forwarder",
          "type": "address"
        }
      ],
      "name": "isTrustedForwarder",
      "outputs": [
        {
          "internalType": "bool",
          "name": "",
          "type": "bool"
        }
      ],
      "stateMutability": "view",
      "type": "function"
    },
    {
      "inputs": [
        {
          "internalType": "string",
          "name": "vin",
          "type": "string"
        }
      ],
      "name": "isVinInVerification",
      "outputs": [
        {
          "internalType": "bool",
          "name": "",
          "type": "bool"
        }
      ],
      "stateMutability": "view",
      "type": "function"
    },
    {
      "inputs": [
        {
          "internalType": "uint256",
          "name": "dealId",
          "type": "uint256"
        }
      ],
      "name": "releaseEscrowForVerifiedCar",
      "outputs": [],
      "stateMutability": "nonpayable",
      "type": "function"
    },
    {
      "inputs": [
        {
          "internalType": "bytes32",
          "name": "role",
          "type": "bytes32"
        },
        {
          "internalType": "address",
          "name": "account",
          "type": "address"
        }
      ],
      "name": "renounceRole",
      "outputs": [],
      "stateMutability": "nonpayable",
      "type": "function"
    },
    {
      "inputs": [
        {
          "internalType": "uint256",
          "name": "tokenId",
          "type": "uint256"
        },
        {
          "internalType": "string",
          "name": "documents",
          "type": "string"
        }
      ],
      "name": "requestVerification",
      "outputs": [
        {
          "internalType": "uint256",
          "name": "",
          "type": "uint256"
        }
      ],
      "stateMutability": "payable",
      "type": "function"
    },
    {
      "inputs": [
        {
          "internalType": "bytes32",
          "name": "role",
          "type": "bytes32"
        },
        {
          "internalType": "address",
          "name": "account",
          "type": "address"
        }
      ],
      "name": "revokeRole",
      "outputs": [],
      "stateMutability": "nonpayable",
      "type": "function"
    },
    {
      "inputs": [
        {
          "internalType": "address payable",
          "name": "newEscrowAddress",
          "type": "address"
        }
      ],
      "name": "setEscrowContract",
      "outputs": [],
      "stateMutability": "nonpayable",
      "type": "function"
    },
    {
      "inputs": [
        {
          "internalType": "uint256",
          "name": "fee",
          "type": "uint256"
        }
      ],
      "name": "setVerificationFee",
      "outputs": [],
      "stateMutability": "nonpayable",
      "type": "function"
    },
    {
      "inputs": [
        {
          "internalType": "bytes4",
          "name": "interfaceId",
          "type": "bytes4"
        }
      ],
      "name": "supportsInterface",
      "outputs": [
        {
          "internalType": "bool",
          "name": "",
          "type": "bool"
        }
      ],
      "stateMutability": "view",
      "type": "function"
    },
    {
      "inputs": [
        {
          "internalType": "uint256",
          "name": "",
          "type": "uint256"
        }
      ],
      "name": "tokenToRequest",
      "outputs": [
        {
          "internalType": "uint256",
          "name": "",
          "type": "uint256"
        }
      ],
      "stateMutability": "view",
      "type": "function"
    },
    {
      "inputs": [],
      "name": "trustedForwarderAddress",
      "outputs": [
        {
          "internalType": "address",
          "name": "",
          "type": "address"
        }
      ],
      "stateMutability": "view",
      "type": "function"
    },
    {
      "inputs": [],
      "name": "verificationFee",
      "outputs": [
        {
          "internalType": "uint256",
          "name": "",
          "type": "uint256"
        }
      ],
      "stateMutability": "view",
      "type": "function"
    },
    {
      "inputs": [
        {
          "internalType": "uint256",
          "name": "",
          "type": "uint256"
        }
      ],
      "name": "verificationRequests",
      "outputs": [
        {
          "internalType": "uint256",
          "name": "requestId",
          "type": "uint256"
        },
        {
          "internalType": "uint256",
          "name": "tokenId",
          "type": "uint256"
        },
        {
          "internalType": "address",
          "name": "requester",
          "type": "address"
        },
        {
          "internalType": "string",
          "name": "vin",
          "type": "string"
        },
        {
          "internalType": "enum VerifierOracle.VerificationStatus",
          "name": "status",
          "type": "uint8"
        },
        {
          "internalType": "uint256",
          "name": "createdAt",
          "type": "uint256"
        },
        {
          "internalType": "uint256",
          "name": "verifiedAt",
          "type": "uint256"
        },
        {
          "internalType": "address",
          "name": "verifier",
          "type": "address"
        },
        {
          "internalType": "string",
          "name": "notes",
          "type": "string"
        },
        {
          "internalType": "string",
          "name": "documents",
          "type": "string"
        }
      ],
      "stateMutability": "view",
      "type": "function"
    },
    {
      "inputs": [
        {
          "internalType": "string",
          "name": "",
          "type": "string"
        }
      ],
      "name": "vinToRequest",
      "outputs": [
        {
          "internalType": "uint256",
          "name": "",
          "type": "uint256"
        }
      ],
      "stateMutability": "view",
      "type": "function"
    },
    {
      "inputs": [],
      "name": "withdrawFees",
      "outputs": [],
      "stateMutability": "nonpayable",
      "type": "function"
    },
    {
      "stateMutability": "payable",
      "type": "receive"
    }
  ],
  "bytecode": "0x60c06040526001600355662386f26fc100006008553480156200002157600080fd5b50604051620054a6380380620054a6833981810160405281019062000047919062000599565b8480600180819055508073ffffffffffffffffffffffffffffffffffffffff1660808173ffffffffffffffffffffffffffffffffffffffff16815250505080600260006101000a81548173ffffffffffffffffffffffffffffffffffffffff021916908373ffffffffffffffffffffffffffffffffffffffff16021790555050600073ffffffffffffffffffffffffffffffffffffffff168273ffffffffffffffffffffffffffffffffffffffff160362000139576040517f08c379a00000000000000000000000000000000000000000000000000000000081526004016200013090620006a8565b60405180910390fd5b6200014e6000801b856200023260201b60201c565b620001807fa49807205ce4d355092ef5a8a18f56e8913cf4a201fbe287825b095693c21775856200023260201b60201c565b620001b27f0ce23c3e399818cfee81a7ab0880f714e53d7672b08df0fa62f2843416e1ea09846200023260201b60201c565b8173ffffffffffffffffffffffffffffffffffffffff1660a08173ffffffffffffffffffffffffffffffffffffffff168152505080600760006101000a81548173ffffffffffffffffffffffffffffffffffffffff021916908373ffffffffffffffffffffffffffffffffffffffff160217905550505050505062000833565b6200024482826200032360201b60201c565b6200031f57600160008084815260200190815260200160002060000160008373ffffffffffffffffffffffffffffffffffffffff1673ffffffffffffffffffffffffffffffffffffffff16815260200190815260200160002060006101000a81548160ff021916908315150217905550620002c46200038d60201b60201c565b73ffffffffffffffffffffffffffffffffffffffff168173ffffffffffffffffffffffffffffffffffffffff16837f2f8788117e7eff1d82e926ec794901d17c78024a50270940304540a733656f0d60405160405180910390a45b5050565b600080600084815260200190815260200160002060000160008373ffffffffffffffffffffffffffffffffffffffff1673ffffffffffffffffffffffffffffffffffffffff16815260200190815260200160002060009054906101000a900460ff16905092915050565b60006200039f620003a460201b60201c565b905090565b6000620003b6620003bb60201b60201c565b905090565b600080600036905090506000620003d76200045160201b60201c565b9050620003ea336200046860201b60201c565b8015620003f75750808210155b15620004395760003682846200040e919062000703565b9080926200041f9392919062000748565b906200042c9190620007cd565b60601c925050506200044e565b62000449620004c260201b60201c565b925050505b90565b600062000463620004ca60201b60201c565b905090565b6000600260009054906101000a900473ffffffffffffffffffffffffffffffffffffffff1673ffffffffffffffffffffffffffffffffffffffff168273ffffffffffffffffffffffffffffffffffffffff16149050919050565b600033905090565b6000620004dc620004e160201b60201c565b905090565b60006014905090565b600080fd5b600073ffffffffffffffffffffffffffffffffffffffff82169050919050565b60006200051c82620004ef565b9050919050565b6200052e816200050f565b81146200053a57600080fd5b50565b6000815190506200054e8162000523565b92915050565b60006200056182620004ef565b9050919050565b620005738162000554565b81146200057f57600080fd5b50565b600081519050620005938162000568565b92915050565b600080600080600060a08688031215620005b857620005b7620004ea565b5b6000620005c8888289016200053d565b9550506020620005db888289016200053d565b9450506040620005ee888289016200053d565b935050606062000601888289016200053d565b9250506080620006148882890162000582565b9150509295509295909350565b600082825260208201905092915050565b7f56657269666965724f7261636c653a20496e76616c6964204361724e4654206160008201527f6464726573730000000000000000000000000000000000000000000000000000602082015250565b60006200069060268362000621565b91506200069d8262000632565b604082019050919050565b60006020820190508181036000830152620006c38162000681565b9050919050565b6000819050919050565b7f4e487b7100000000000000000000000000000000000000000000000000000000600052601160045260246000fd5b60006200071082620006ca565b91506200071d83620006ca565b9250828203905081811115620007385762000737620006d4565b5b92915050565b600080fd5b600080fd5b600080858511156200075f576200075e6200073e565b5b8386111562000773576200077262000743565b5b6001850283019150848603905094509492505050565b600082905092915050565b60007fffffffffffffffffffffffffffffffffffffffff00000000000000000000000082169050919050565b600082821b905092915050565b6000620007db838362000789565b82620007e8813562000794565b925060148210156200082b57620008267fffffffffffffffffffffffffffffffffffffffff00000000000000000000000083601403600802620007c0565b831692505b505092915050565b60805160a051614c2d62000879600039600081816111f0015281816117d60152818161196101528181611a4601528181611f8601526121c4015260005050614c2d6000f3fe6080604052600436106101dc5760003560e01c806380a1f71211610102578063aa419ba411610095578063e7705db611610064578063e7705db614610725578063f2f17bf514610750578063f42375b51461077b578063fcef9a25146107a4576101e3565b8063aa419ba41461066b578063aae9d5f2146106a8578063ce1b815f146106d1578063d547741f146106fc576101e3565b80639e9c6815116100d15780639e9c6815146105a8578063a217fddf146105e5578063a3f6226414610610578063a8c278a214610640576101e3565b806380a1f712146104ea57806386f0423e1461051557806391d14854146105405780639af08b321461057d576101e3565b8063476343ee1161017a578063669cb64c11610149578063669cb64c1461043057806366afeb321461045957806375b238fc146104965780637e24e8f5146104c1576101e3565b8063476343ee146103625780635504997314610379578063572b6c05146103b65780635c37d995146103f3576101e3565b8063248a9ca3116101b6578063248a9ca31461028d5780632f2ff15d146102ca57806336568abe146102f35780634089d49f1461031c576101e3565b806301ffc9a7146101e85780630d5defa41461022557806322ccb47414610250576101e3565b366101e357005b600080fd5b3480156101f457600080fd5b5061020f600480360381019061020a9190612d86565b6107cd565b60405161021c9190612dce565b60405180910390f35b34801561023157600080fd5b5061023a610847565b6040516102479190612e2a565b60405180910390f35b34801561025c57600080fd5b5061027760048036038101906102729190612e7b565b61086d565b60405161028491906130c7565b60405180910390f35b34801561029957600080fd5b506102b460048036038101906102af919061311f565b610b60565b6040516102c1919061315b565b60405180910390f35b3480156102d657600080fd5b506102f160048036038101906102ec91906131a2565b610b7f565b005b3480156102ff57600080fd5b5061031a600480360381019061031591906131a2565b610ba0565b005b34801561032857600080fd5b50610343600480360381019061033e9190612e7b565b610c23565b6040516103599a99989796959493929190613259565b60405180910390f35b34801561036e57600080fd5b50610377610e5c565b005b34801561038557600080fd5b506103a0600480360381019061039b919061336f565b610ed7565b6040516103ad9190612dce565b60405180910390f35b3480156103c257600080fd5b506103dd60048036038101906103d891906133bc565b610f51565b6040516103ea9190612dce565b60405180910390f35b3480156103ff57600080fd5b5061041a600480360381019061041591906133bc565b610fab565b6040516104279190613498565b60405180910390f35b34801561043c57600080fd5b50610457600480360381019061045291906134df565b610ffe565b005b34801561046557600080fd5b50610480600480360381019061047b9190613683565b6112fa565b60405161048d91906136cc565b60405180910390f35b3480156104a257600080fd5b506104ab611328565b6040516104b8919061315b565b60405180910390f35b3480156104cd57600080fd5b506104e860048036038101906104e3919061373d565b61134c565b005b3480156104f657600080fd5b506104ff6113b1565b60405161050c9190613498565b60405180910390f35b34801561052157600080fd5b5061052a611402565b604051610537919061378a565b60405180910390f35b34801561054c57600080fd5b50610567600480360381019061056291906131a2565b611428565b6040516105749190612dce565b60405180910390f35b34801561058957600080fd5b50610592611492565b60405161059f91906136cc565b60405180910390f35b3480156105b457600080fd5b506105cf60048036038101906105ca9190612e7b565b611499565b6040516105dc91906130c7565b60405180910390f35b3480156105f157600080fd5b506105fa6117a5565b604051610607919061315b565b60405180910390f35b61062a600480360381019061062591906137a5565b6117ac565b60405161063791906136cc565b60405180910390f35b34801561064c57600080fd5b50610655611e81565b60405161066291906136cc565b60405180910390f35b34801561067757600080fd5b50610692600480360381019061068d9190612e7b565b611e87565b60405161069f91906136cc565b60405180910390f35b3480156106b457600080fd5b506106cf60048036038101906106ca9190612e7b565b611e9f565b005b3480156106dd57600080fd5b506106e6611f15565b6040516106f3919061378a565b60405180910390f35b34801561070857600080fd5b50610723600480360381019061071e91906131a2565b611f3f565b005b34801561073157600080fd5b5061073a611f60565b604051610747919061315b565b60405180910390f35b34801561075c57600080fd5b50610765611f84565b6040516107729190613864565b60405180910390f35b34801561078757600080fd5b506107a2600480360381019061079d91906138ab565b611fa8565b005b3480156107b057600080fd5b506107cb60048036038101906107c69190612e7b565b612086565b005b60007f7965db0b000000000000000000000000000000000000000000000000000000007bffffffffffffffffffffffffffffffffffffffffffffffffffffffff1916827bffffffffffffffffffffffffffffffffffffffffffffffffffffffff19161480610840575061083f8261238e565b5b9050919050565b600760009054906101000a900473ffffffffffffffffffffffffffffffffffffffff1681565b610875612c89565b600460008381526020019081526020016000206040518061014001604052908160008201548152602001600182015481526020016002820160009054906101000a900473ffffffffffffffffffffffffffffffffffffffff1673ffffffffffffffffffffffffffffffffffffffff1673ffffffffffffffffffffffffffffffffffffffff16815260200160038201805461090e90613907565b80601f016020809104026020016040519081016040528092919081815260200182805461093a90613907565b80156109875780601f1061095c57610100808354040283529160200191610987565b820191906000526020600020905b81548152906001019060200180831161096a57829003601f168201915b505050505081526020016004820160009054906101000a900460ff1660038111156109b5576109b4612f68565b5b60038111156109c7576109c6612f68565b5b815260200160058201548152602001600682015481526020016007820160009054906101000a900473ffffffffffffffffffffffffffffffffffffffff1673ffffffffffffffffffffffffffffffffffffffff1673ffffffffffffffffffffffffffffffffffffffff168152602001600882018054610a4590613907565b80601f0160208091040260200160405190810160405280929190818152602001828054610a7190613907565b8015610abe5780601f10610a9357610100808354040283529160200191610abe565b820191906000526020600020905b815481529060010190602001808311610aa157829003601f168201915b50505050508152602001600982018054610ad790613907565b80601f0160208091040260200160405190810160405280929190818152602001828054610b0390613907565b8015610b505780601f10610b2557610100808354040283529160200191610b50565b820191906000526020600020905b815481529060010190602001808311610b3357829003601f168201915b5050505050815250509050919050565b6000806000838152602001908152602001600020600101549050919050565b610b8882610b60565b610b91816123f8565b610b9b838361240c565b505050565b610ba86124ec565b73ffffffffffffffffffffffffffffffffffffffff168173ffffffffffffffffffffffffffffffffffffffff1614610c15576040517f08c379a0000000000000000000000000000000000000000000000000000000008152600401610c0c906139aa565b60405180910390fd5b610c1f82826124fb565b5050565b60046020528060005260406000206000915090508060000154908060010154908060020160009054906101000a900473ffffffffffffffffffffffffffffffffffffffff1690806003018054610c7890613907565b80601f0160208091040260200160405190810160405280929190818152602001828054610ca490613907565b8015610cf15780601f10610cc657610100808354040283529160200191610cf1565b820191906000526020600020905b815481529060010190602001808311610cd457829003601f168201915b5050505050908060040160009054906101000a900460ff16908060050154908060060154908060070160009054906101000a900473ffffffffffffffffffffffffffffffffffffffff1690806008018054610d4b90613907565b80601f0160208091040260200160405190810160405280929190818152602001828054610d7790613907565b8015610dc45780601f10610d9957610100808354040283529160200191610dc4565b820191906000526020600020905b815481529060010190602001808311610da757829003601f168201915b505050505090806009018054610dd990613907565b80601f0160208091040260200160405190810160405280929190818152602001828054610e0590613907565b8015610e525780601f10610e2757610100808354040283529160200191610e52565b820191906000526020600020905b815481529060010190602001808311610e3557829003601f168201915b505050505090508a565b7fa49807205ce4d355092ef5a8a18f56e8913cf4a201fbe287825b095693c21775610e86816123f8565b610e8e6124ec565b73ffffffffffffffffffffffffffffffffffffffff166108fc479081150290604051600060405180830381858888f19350505050158015610ed3573d6000803e3d6000fd5b5050565b60008060068484604051610eec9291906139fa565b908152602001604051809103902054905060006003811115610f1157610f10612f68565b5b6004600083815260200190815260200160002060040160009054906101000a900460ff166003811115610f4757610f46612f68565b5b1491505092915050565b6000600260009054906101000a900473ffffffffffffffffffffffffffffffffffffffff1673ffffffffffffffffffffffffffffffffffffffff168273ffffffffffffffffffffffffffffffffffffffff16149050919050565b6060600067ffffffffffffffff811115610fc857610fc7613558565b5b604051908082528060200260200182016040528015610ff65781602001602082028036833780820191505090505b509050919050565b6110066125dc565b7f0ce23c3e399818cfee81a7ab0880f714e53d7672b08df0fa62f2843416e1ea09611030816123f8565b60006004600087815260200190815260200160002090506000600381111561105b5761105a612f68565b5b8160040160009054906101000a900460ff16600381111561107f5761107e612f68565b5b146110bf576040517f08c379a00000000000000000000000000000000000000000000000000000000081526004016110b690613a85565b60405180910390fd5b62278d0081600501546110d29190613ad4565b421115611114576040517f08c379a000000000000000000000000000000000000000000000000000000000815260040161110b90613b7a565b60405180910390fd5b848160040160006101000a81548160ff0219169083600381111561113b5761113a612f68565b5b02179055504281600601819055506111516124ec565b8160070160006101000a81548173ffffffffffffffffffffffffffffffffffffffff021916908373ffffffffffffffffffffffffffffffffffffffff16021790555083838260080191826111a6929190613d47565b50600560008260010154815260200190815260200160002060009055600160038111156111d6576111d5612f68565b5b8560038111156111e9576111e8612f68565b5b0361127e577f000000000000000000000000000000000000000000000000000000000000000073ffffffffffffffffffffffffffffffffffffffff166334e0ebe782600101546040518263ffffffff1660e01b815260040161124b91906136cc565b600060405180830381600087803b15801561126557600080fd5b505af1158015611279573d6000803e3d6000fd5b505050505b61128b816001015461262b565b6112936124ec565b73ffffffffffffffffffffffffffffffffffffffff168160010154877f41ca916acb87461e20d61c8b0301e4142225332c4f348f4c2cfbdc09e01c51668888886040516112e293929190613e44565b60405180910390a450506112f46128df565b50505050565b6006818051602081018201805184825260208301602085012081835280955050505050506000915090505481565b7fa49807205ce4d355092ef5a8a18f56e8913cf4a201fbe287825b095693c2177581565b7f0ce23c3e399818cfee81a7ab0880f714e53d7672b08df0fa62f2843416e1ea09611376816123f8565b6040517f08c379a00000000000000000000000000000000000000000000000000000000081526004016113a890613ec2565b60405180910390fd5b6060600067ffffffffffffffff8111156113ce576113cd613558565b5b6040519080825280602002602001820160405280156113fc5781602001602082028036833780820191505090505b50905090565b600260009054906101000a900473ffffffffffffffffffffffffffffffffffffffff1681565b600080600084815260200190815260200160002060000160008373ffffffffffffffffffffffffffffffffffffffff1673ffffffffffffffffffffffffffffffffffffffff16815260200190815260200160002060009054906101000a900460ff16905092915050565b62278d0081565b6114a1612c89565b600060056000848152602001908152602001600020549050600460008281526020019081526020016000206040518061014001604052908160008201548152602001600182015481526020016002820160009054906101000a900473ffffffffffffffffffffffffffffffffffffffff1673ffffffffffffffffffffffffffffffffffffffff1673ffffffffffffffffffffffffffffffffffffffff16815260200160038201805461155290613907565b80601f016020809104026020016040519081016040528092919081815260200182805461157e90613907565b80156115cb5780601f106115a0576101008083540402835291602001916115cb565b820191906000526020600020905b8154815290600101906020018083116115ae57829003601f168201915b505050505081526020016004820160009054906101000a900460ff1660038111156115f9576115f8612f68565b5b600381111561160b5761160a612f68565b5b815260200160058201548152602001600682015481526020016007820160009054906101000a900473ffffffffffffffffffffffffffffffffffffffff1673ffffffffffffffffffffffffffffffffffffffff1673ffffffffffffffffffffffffffffffffffffffff16815260200160088201805461168990613907565b80601f01602080910402602001604051908101604052809291908181526020018280546116b590613907565b80156117025780601f106116d757610100808354040283529160200191611702565b820191906000526020600020905b8154815290600101906020018083116116e557829003601f168201915b5050505050815260200160098201805461171b90613907565b80601f016020809104026020016040519081016040528092919081815260200182805461174790613907565b80156117945780601f1061176957610100808354040283529160200191611794565b820191906000526020600020905b81548152906001019060200180831161177757829003601f168201915b505050505081525050915050919050565b6000801b81565b60006117b66125dc565b6117be6124ec565b73ffffffffffffffffffffffffffffffffffffffff167f000000000000000000000000000000000000000000000000000000000000000073ffffffffffffffffffffffffffffffffffffffff16636352211e866040518263ffffffff1660e01b815260040161182d91906136cc565b602060405180830381865afa15801561184a573d6000803e3d6000fd5b505050506040513d601f19601f8201168201806040525081019061186e9190613ef7565b73ffffffffffffffffffffffffffffffffffffffff16146118c4576040517f08c379a00000000000000000000000000000000000000000000000000000000081526004016118bb90613f70565b60405180910390fd5b600854341015611909576040517f08c379a000000000000000000000000000000000000000000000000000000000815260040161190090614002565b60405180910390fd5b600060056000868152602001908152602001600020541461195f576040517f08c379a000000000000000000000000000000000000000000000000000000000815260040161195690614094565b60405180910390fd5b7f000000000000000000000000000000000000000000000000000000000000000073ffffffffffffffffffffffffffffffffffffffff1663472ec454856040518263ffffffff1660e01b81526004016119b891906136cc565b600060405180830381865afa1580156119d5573d6000803e3d6000fd5b505050506040513d6000823e3d601f19601f820116820180604052508101906119fe9190614274565b6080015115611a42576040517f08c379a0000000000000000000000000000000000000000000000000000000008152600401611a399061432f565b60405180910390fd5b60007f000000000000000000000000000000000000000000000000000000000000000073ffffffffffffffffffffffffffffffffffffffff1663472ec454866040518263ffffffff1660e01b8152600401611a9d91906136cc565b600060405180830381865afa158015611aba573d6000803e3d6000fd5b505050506040513d6000823e3d601f19601f82011682018060405250810190611ae39190614274565b9050600081600001515111611b2d576040517f08c379a0000000000000000000000000000000000000000000000000000000008152600401611b249061439b565b60405180910390fd5b600060036000815480929190611b42906143bb565b919050559050604051806101400160405280828152602001878152602001611b686124ec565b73ffffffffffffffffffffffffffffffffffffffff1681526020018360000151815260200160006003811115611ba157611ba0612f68565b5b815260200142815260200160008152602001600073ffffffffffffffffffffffffffffffffffffffff16815260200160405180602001604052806000815250815260200186868080601f016020809104026020016040519081016040528093929190818152602001838380828437600081840152601f19601f8201169050808301925050505050505081525060046000838152602001908152602001600020600082015181600001556020820151816001015560408201518160020160006101000a81548173ffffffffffffffffffffffffffffffffffffffff021916908373ffffffffffffffffffffffffffffffffffffffff1602179055506060820151816003019081611cb09190614403565b5060808201518160040160006101000a81548160ff02191690836003811115611cdc57611cdb612f68565b5b021790555060a0820151816005015560c0820151816006015560e08201518160070160006101000a81548173ffffffffffffffffffffffffffffffffffffffff021916908373ffffffffffffffffffffffffffffffffffffffff160217905550610100820151816008019081611d529190614403565b50610120820151816009019081611d699190614403565b509050508060056000888152602001908152602001600020819055508060068360000151604051611d9a9190614506565b908152602001604051809103902081905550600854341115611e1257611dbe6124ec565b73ffffffffffffffffffffffffffffffffffffffff166108fc60085434611de5919061451d565b9081150290604051600060405180830381858888f19350505050158015611e10573d6000803e3d6000fd5b505b611e1a6124ec565b73ffffffffffffffffffffffffffffffffffffffff1686827f365bf171cc294f01bd1cdaa31a124575398ee288357b4306f11d5928c92ad8ff8560000151604051611e659190614551565b60405180910390a48092505050611e7a6128df565b9392505050565b60085481565b60056020528060005260406000206000915090505481565b7fa49807205ce4d355092ef5a8a18f56e8913cf4a201fbe287825b095693c21775611ec9816123f8565b60006008549050826008819055507f28bf830139b6fae98d6890d2860d39927b365d01c78df9ebfcb3a4a35749c2b78184604051611f08929190614573565b60405180910390a1505050565b6000600260009054906101000a900473ffffffffffffffffffffffffffffffffffffffff16905090565b611f4882610b60565b611f51816123f8565b611f5b83836124fb565b505050565b7f0ce23c3e399818cfee81a7ab0880f714e53d7672b08df0fa62f2843416e1ea0981565b7f000000000000000000000000000000000000000000000000000000000000000081565b7fa49807205ce4d355092ef5a8a18f56e8913cf4a201fbe287825b095693c21775611fd2816123f8565b600073ffffffffffffffffffffffffffffffffffffffff168273ffffffffffffffffffffffffffffffffffffffff1603612041576040517f08c379a00000000000000000000000000000000000000000000000000000000081526004016120389061460e565b60405180910390fd5b81600760006101000a81548173ffffffffffffffffffffffffffffffffffffffff021916908373ffffffffffffffffffffffffffffffffffffffff1602179055505050565b7f0ce23c3e399818cfee81a7ab0880f714e53d7672b08df0fa62f2843416e1ea096120b0816123f8565b6000600760009054906101000a900473ffffffffffffffffffffffffffffffffffffffff1673ffffffffffffffffffffffffffffffffffffffff16637267f721846040518263ffffffff1660e01b815260040161210d91906136cc565b600060405180830381865afa15801561212a573d6000803e3d6000fd5b505050506040513d6000823e3d601f19601f820116820180604052508101906121539190614764565b90506001600481111561216957612168612f68565b5b8160a0015160048111156121805761217f612f68565b5b146121c0576040517f08c379a00000000000000000000000000000000000000000000000000000000081526004016121b79061481f565b60405180910390fd5b60007f000000000000000000000000000000000000000000000000000000000000000073ffffffffffffffffffffffffffffffffffffffff1663472ec45483602001516040518263ffffffff1660e01b815260040161221f91906136cc565b600060405180830381865afa15801561223c573d6000803e3d6000fd5b505050506040513d6000823e3d601f19601f820116820180604052508101906122659190614274565b905080608001516122ab576040517f08c379a00000000000000000000000000000000000000000000000000000000081526004016122a29061488b565b60405180910390fd5b600760009054906101000a900473ffffffffffffffffffffffffffffffffffffffff1673ffffffffffffffffffffffffffffffffffffffff1663ed653164856040518263ffffffff1660e01b815260040161230691906136cc565b600060405180830381600087803b15801561232057600080fd5b505af1158015612334573d6000803e3d6000fd5b505050506123406124ec565b73ffffffffffffffffffffffffffffffffffffffff168260200151857f42d6d6c9aab3e26747215559fd2bdd240720051c1a64bf30714611cd93939c7a60405160405180910390a450505050565b60007f01ffc9a7000000000000000000000000000000000000000000000000000000007bffffffffffffffffffffffffffffffffffffffffffffffffffffffff1916827bffffffffffffffffffffffffffffffffffffffffffffffffffffffff1916149050919050565b612409816124046124ec565b6128e8565b50565b6124168282611428565b6124e857600160008084815260200190815260200160002060000160008373ffffffffffffffffffffffffffffffffffffffff1673ffffffffffffffffffffffffffffffffffffffff16815260200190815260200160002060006101000a81548160ff02191690831515021790555061248d6124ec565b73ffffffffffffffffffffffffffffffffffffffff168173ffffffffffffffffffffffffffffffffffffffff16837f2f8788117e7eff1d82e926ec794901d17c78024a50270940304540a733656f0d60405160405180910390a45b5050565b60006124f661296d565b905090565b6125058282611428565b156125d857600080600084815260200190815260200160002060000160008373ffffffffffffffffffffffffffffffffffffffff1673ffffffffffffffffffffffffffffffffffffffff16815260200190815260200160002060006101000a81548160ff02191690831515021790555061257d6124ec565b73ffffffffffffffffffffffffffffffffffffffff168173ffffffffffffffffffffffffffffffffffffffff16837ff6391f5c32d9c69d2a47ea670b442974b53935d1edc7fd64eb21e047a839171b60405160405180910390a45b5050565b600260015403612621576040517f08c379a0000000000000000000000000000000000000000000000000000000008152600401612618906148f7565b60405180910390fd5b6002600181905550565b600073ffffffffffffffffffffffffffffffffffffffff16600760009054906101000a900473ffffffffffffffffffffffffffffffffffffffff1673ffffffffffffffffffffffffffffffffffffffff16146128dc57600760009054906101000a900473ffffffffffffffffffffffffffffffffffffffff1673ffffffffffffffffffffffffffffffffffffffff16636184dd92826040518263ffffffff1660e01b81526004016126dc91906136cc565b602060405180830381865afa1580156126f9573d6000803e3d6000fd5b505050506040513d601f19601f8201168201806040525081019061271d9190614917565b156128db576000600760009054906101000a900473ffffffffffffffffffffffffffffffffffffffff1673ffffffffffffffffffffffffffffffffffffffff166311d4475e836040518263ffffffff1660e01b815260040161277f91906136cc565b600060405180830381865afa15801561279c573d6000803e3d6000fd5b505050506040513d6000823e3d601f19601f820116820180604052508101906127c59190614764565b9050600160048111156127db576127da612f68565b5b8160a0015160048111156127f2576127f1612f68565b5b036128d957600760009054906101000a900473ffffffffffffffffffffffffffffffffffffffff1673ffffffffffffffffffffffffffffffffffffffff1663ed65316482600001516040518263ffffffff1660e01b815260040161285691906136cc565b600060405180830381600087803b15801561287057600080fd5b505af1158015612884573d6000803e3d6000fd5b505050506128906124ec565b73ffffffffffffffffffffffffffffffffffffffff168282600001517f42d6d6c9aab3e26747215559fd2bdd240720051c1a64bf30714611cd93939c7a60405160405180910390a45b505b5b50565b60018081905550565b6128f28282611428565b612969576128ff8161297c565b61290d8360001c60206129a9565b60405160200161291e9291906149dc565b6040516020818303038152906040526040517f08c379a00000000000000000000000000000000000000000000000000000000081526004016129609190614551565b60405180910390fd5b5050565b6000612977612be5565b905090565b60606129a28273ffffffffffffffffffffffffffffffffffffffff16601460ff166129a9565b9050919050565b6060600060028360026129bc9190614a16565b6129c69190613ad4565b67ffffffffffffffff8111156129df576129de613558565b5b6040519080825280601f01601f191660200182016040528015612a115781602001600182028036833780820191505090505b5090507f300000000000000000000000000000000000000000000000000000000000000081600081518110612a4957612a48614a58565b5b60200101907effffffffffffffffffffffffffffffffffffffffffffffffffffffffffffff1916908160001a9053507f780000000000000000000000000000000000000000000000000000000000000081600181518110612aad57612aac614a58565b5b60200101907effffffffffffffffffffffffffffffffffffffffffffffffffffffffffffff1916908160001a90535060006001846002612aed9190614a16565b612af79190613ad4565b90505b6001811115612b97577f3031323334353637383961626364656600000000000000000000000000000000600f861660108110612b3957612b38614a58565b5b1a60f81b828281518110612b5057612b4f614a58565b5b60200101907effffffffffffffffffffffffffffffffffffffffffffffffffffffffffffff1916908160001a905350600485901c945080612b9090614a87565b9050612afa565b5060008414612bdb576040517f08c379a0000000000000000000000000000000000000000000000000000000008152600401612bd290614afc565b60405180910390fd5b8091505092915050565b600080600036905090506000612bf9612c5a565b9050612c0433610f51565b8015612c105750808210155b15612c4a576000368284612c24919061451d565b908092612c3393929190614b26565b90612c3e9190614b98565b60601c92505050612c57565b612c52612c69565b925050505b90565b6000612c64612c71565b905090565b600033905090565b6000612c7b612c80565b905090565b60006014905090565b6040518061014001604052806000815260200160008152602001600073ffffffffffffffffffffffffffffffffffffffff1681526020016060815260200160006003811115612cdb57612cda612f68565b5b81526020016000815260200160008152602001600073ffffffffffffffffffffffffffffffffffffffff16815260200160608152602001606081525090565b6000604051905090565b600080fd5b600080fd5b60007fffffffff0000000000000000000000000000000000000000000000000000000082169050919050565b612d6381612d2e565b8114612d6e57600080fd5b50565b600081359050612d8081612d5a565b92915050565b600060208284031215612d9c57612d9b612d24565b5b6000612daa84828501612d71565b91505092915050565b60008115159050919050565b612dc881612db3565b82525050565b6000602082019050612de36000830184612dbf565b92915050565b600073ffffffffffffffffffffffffffffffffffffffff82169050919050565b6000612e1482612de9565b9050919050565b612e2481612e09565b82525050565b6000602082019050612e3f6000830184612e1b565b92915050565b6000819050919050565b612e5881612e45565b8114612e6357600080fd5b50565b600081359050612e7581612e4f565b92915050565b600060208284031215612e9157612e90612d24565b5b6000612e9f84828501612e66565b91505092915050565b612eb181612e45565b82525050565b6000612ec282612de9565b9050919050565b612ed281612eb7565b82525050565b600081519050919050565b600082825260208201905092915050565b60005b83811015612f12578082015181840152602081019050612ef7565b60008484015250505050565b6000601f19601f8301169050919050565b6000612f3a82612ed8565b612f448185612ee3565b9350612f54818560208601612ef4565b612f5d81612f1e565b840191505092915050565b7f4e487b7100000000000000000000000000000000000000000000000000000000600052602160045260246000fd5b60048110612fa857612fa7612f68565b5b50565b6000819050612fb982612f97565b919050565b6000612fc982612fab565b9050919050565b612fd981612fbe565b82525050565b600061014083016000830151612ff86000860182612ea8565b50602083015161300b6020860182612ea8565b50604083015161301e6040860182612ec9565b50606083015184820360608601526130368282612f2f565b915050608083015161304b6080860182612fd0565b5060a083015161305e60a0860182612ea8565b5060c083015161307160c0860182612ea8565b5060e083015161308460e0860182612ec9565b5061010083015184820361010086015261309e8282612f2f565b9150506101208301518482036101208601526130ba8282612f2f565b9150508091505092915050565b600060208201905081810360008301526130e18184612fdf565b905092915050565b6000819050919050565b6130fc816130e9565b811461310757600080fd5b50565b600081359050613119816130f3565b92915050565b60006020828403121561313557613134612d24565b5b60006131438482850161310a565b91505092915050565b613155816130e9565b82525050565b6000602082019050613170600083018461314c565b92915050565b61317f81612eb7565b811461318a57600080fd5b50565b60008135905061319c81613176565b92915050565b600080604083850312156131b9576131b8612d24565b5b60006131c78582860161310a565b92505060206131d88582860161318d565b9150509250929050565b6131eb81612e45565b82525050565b6131fa81612eb7565b82525050565b600082825260208201905092915050565b600061321c82612ed8565b6132268185613200565b9350613236818560208601612ef4565b61323f81612f1e565b840191505092915050565b61325381612fbe565b82525050565b60006101408201905061326f600083018d6131e2565b61327c602083018c6131e2565b613289604083018b6131f1565b818103606083015261329b818a613211565b90506132aa608083018961324a565b6132b760a08301886131e2565b6132c460c08301876131e2565b6132d160e08301866131f1565b8181036101008301526132e48185613211565b90508181036101208301526132f98184613211565b90509b9a5050505050505050505050565b600080fd5b600080fd5b600080fd5b60008083601f84011261332f5761332e61330a565b5b8235905067ffffffffffffffff81111561334c5761334b61330f565b5b60208301915083600182028301111561336857613367613314565b5b9250929050565b6000806020838503121561338657613385612d24565b5b600083013567ffffffffffffffff8111156133a4576133a3612d29565b5b6133b085828601613319565b92509250509250929050565b6000602082840312156133d2576133d1612d24565b5b60006133e08482850161318d565b91505092915050565b600081519050919050565b600082825260208201905092915050565b6000819050602082019050919050565b60006134218383612ea8565b60208301905092915050565b6000602082019050919050565b6000613445826133e9565b61344f81856133f4565b935061345a83613405565b8060005b8381101561348b5781516134728882613415565b975061347d8361342d565b92505060018101905061345e565b5085935050505092915050565b600060208201905081810360008301526134b2818461343a565b905092915050565b600481106134c757600080fd5b50565b6000813590506134d9816134ba565b92915050565b600080600080606085870312156134f9576134f8612d24565b5b600061350787828801612e66565b9450506020613518878288016134ca565b935050604085013567ffffffffffffffff81111561353957613538612d29565b5b61354587828801613319565b925092505092959194509250565b600080fd5b7f4e487b7100000000000000000000000000000000000000000000000000000000600052604160045260246000fd5b61359082612f1e565b810181811067ffffffffffffffff821117156135af576135ae613558565b5b80604052505050565b60006135c2612d1a565b90506135ce8282613587565b919050565b600067ffffffffffffffff8211156135ee576135ed613558565b5b6135f782612f1e565b9050602081019050919050565b82818337600083830152505050565b6000613626613621846135d3565b6135b8565b90508281526020810184848401111561364257613641613553565b5b61364d848285613604565b509392505050565b600082601f83011261366a5761366961330a565b5b813561367a848260208601613613565b91505092915050565b60006020828403121561369957613698612d24565b5b600082013567ffffffffffffffff8111156136b7576136b6612d29565b5b6136c384828501613655565b91505092915050565b60006020820190506136e160008301846131e2565b92915050565b60008083601f8401126136fd576136fc61330a565b5b8235905067ffffffffffffffff81111561371a5761371961330f565b5b60208301915083602082028301111561373657613735613314565b5b9250929050565b6000806020838503121561375457613753612d24565b5b600083013567ffffffffffffffff81111561377257613771612d29565b5b61377e858286016136e7565b92509250509250929050565b600060208201905061379f60008301846131f1565b92915050565b6000806000604084860312156137be576137bd612d24565b5b60006137cc86828701612e66565b935050602084013567ffffffffffffffff8111156137ed576137ec612d29565b5b6137f986828701613319565b92509250509250925092565b6000819050919050565b600061382a61382561382084612de9565b613805565b612de9565b9050919050565b600061383c8261380f565b9050919050565b600061384e82613831565b9050919050565b61385e81613843565b82525050565b60006020820190506138796000830184613855565b92915050565b61388881612e09565b811461389357600080fd5b50565b6000813590506138a58161387f565b92915050565b6000602082840312156138c1576138c0612d24565b5b60006138cf84828501613896565b91505092915050565b7f4e487b7100000000000000000000000000000000000000000000000000000000600052602260045260246000fd5b6000600282049050600182168061391f57607f821691505b602082108103613932576139316138d8565b5b50919050565b7f416363657373436f6e74726f6c3a2063616e206f6e6c792072656e6f756e636560008201527f20726f6c657320666f722073656c660000000000000000000000000000000000602082015250565b6000613994602f83613200565b915061399f82613938565b604082019050919050565b600060208201905081810360008301526139c381613987565b9050919050565b600081905092915050565b60006139e183856139ca565b93506139ee838584613604565b82840190509392505050565b6000613a078284866139d5565b91508190509392505050565b7f56657269666965724f7261636c653a2052657175657374206e6f742070656e6460008201527f696e670000000000000000000000000000000000000000000000000000000000602082015250565b6000613a6f602383613200565b9150613a7a82613a13565b604082019050919050565b60006020820190508181036000830152613a9e81613a62565b9050919050565b7f4e487b7100000000000000000000000000000000000000000000000000000000600052601160045260246000fd5b6000613adf82612e45565b9150613aea83612e45565b9250828201905080821115613b0257613b01613aa5565b5b92915050565b7f56657269666965724f7261636c653a20566572696669636174696f6e2065787060008201527f6972656400000000000000000000000000000000000000000000000000000000602082015250565b6000613b64602483613200565b9150613b6f82613b08565b604082019050919050565b60006020820190508181036000830152613b9381613b57565b9050919050565b600082905092915050565b60008190508160005260206000209050919050565b60006020601f8301049050919050565b600082821b905092915050565b600060088302613c077fffffffffffffffffffffffffffffffffffffffffffffffffffffffffffffffff82613bca565b613c118683613bca565b95508019841693508086168417925050509392505050565b6000613c44613c3f613c3a84612e45565b613805565b612e45565b9050919050565b6000819050919050565b613c5e83613c29565b613c72613c6a82613c4b565b848454613bd7565b825550505050565b600090565b613c87613c7a565b613c92818484613c55565b505050565b5b81811015613cb657613cab600082613c7f565b600181019050613c98565b5050565b601f821115613cfb57613ccc81613ba5565b613cd584613bba565b81016020851015613ce4578190505b613cf8613cf085613bba565b830182613c97565b50505b505050565b600082821c905092915050565b6000613d1e60001984600802613d00565b1980831691505092915050565b6000613d378383613d0d565b9150826002028217905092915050565b613d518383613b9a565b67ffffffffffffffff811115613d6a57613d69613558565b5b613d748254613907565b613d7f828285613cba565b6000601f831160018114613dae5760008415613d9c578287013590505b613da68582613d2b565b865550613e0e565b601f198416613dbc86613ba5565b60005b82811015613de457848901358255600182019150602085019450602081019050613dbf565b86831015613e015784890135613dfd601f891682613d0d565b8355505b6001600288020188555050505b50505050505050565b6000613e238385613200565b9350613e30838584613604565b613e3983612f1e565b840190509392505050565b6000604082019050613e59600083018661324a565b8181036020830152613e6c818486613e17565b9050949350505050565b7f42617463682072656c65617365206e6f7420696d706c656d656e746564000000600082015250565b6000613eac601d83613200565b9150613eb782613e76565b602082019050919050565b60006020820190508181036000830152613edb81613e9f565b9050919050565b600081519050613ef181613176565b92915050565b600060208284031215613f0d57613f0c612d24565b5b6000613f1b84828501613ee2565b91505092915050565b7f56657269666965724f7261636c653a204e6f7420746f6b656e206f776e657200600082015250565b6000613f5a601f83613200565b9150613f6582613f24565b602082019050919050565b60006020820190508181036000830152613f8981613f4d565b9050919050565b7f56657269666965724f7261636c653a20496e73756666696369656e742076657260008201527f696669636174696f6e2066656500000000000000000000000000000000000000602082015250565b6000613fec602d83613200565b9150613ff782613f90565b604082019050919050565b6000602082019050818103600083015261401b81613fdf565b9050919050565b7f56657269666965724f7261636c653a20566572696669636174696f6e20616c7260008201527f6561647920726571756573746564000000000000000000000000000000000000602082015250565b600061407e602e83613200565b915061408982614022565b604082019050919050565b600060208201905081810360008301526140ad81614071565b9050919050565b600080fd5b600080fd5b60006140d16140cc846135d3565b6135b8565b9050828152602081018484840111156140ed576140ec613553565b5b6140f8848285612ef4565b509392505050565b600082601f8301126141155761411461330a565b5b81516141258482602086016140be565b91505092915050565b600061ffff82169050919050565b6141458161412e565b811461415057600080fd5b50565b6000815190506141628161413c565b92915050565b61417181612db3565b811461417c57600080fd5b50565b60008151905061418e81614168565b92915050565b600060a082840312156141aa576141a96140b4565b5b6141b460a06135b8565b9050600082015167ffffffffffffffff8111156141d4576141d36140b9565b5b6141e084828501614100565b600083015250602082015167ffffffffffffffff811115614204576142036140b9565b5b61421084828501614100565b602083015250604082015167ffffffffffffffff811115614234576142336140b9565b5b61424084828501614100565b604083015250606061425484828501614153565b60608301525060806142688482850161417f565b60808301525092915050565b60006020828403121561428a57614289612d24565b5b600082015167ffffffffffffffff8111156142a8576142a7612d29565b5b6142b484828501614194565b91505092915050565b7f56657269666965724f7261636c653a2043617220616c7265616479207665726960008201527f6669656400000000000000000000000000000000000000000000000000000000602082015250565b6000614319602483613200565b9150614324826142bd565b604082019050919050565b600060208201905081810360008301526143488161430c565b9050919050565b7f56657269666965724f7261636c653a20496e76616c69642056494e0000000000600082015250565b6000614385601b83613200565b91506143908261434f565b602082019050919050565b600060208201905081810360008301526143b481614378565b9050919050565b60006143c682612e45565b91507fffffffffffffffffffffffffffffffffffffffffffffffffffffffffffffffff82036143f8576143f7613aa5565b5b600182019050919050565b61440c82612ed8565b67ffffffffffffffff81111561442557614424613558565b5b61442f8254613907565b61443a828285613cba565b600060209050601f83116001811461446d576000841561445b578287015190505b6144658582613d2b565b8655506144cd565b601f19841661447b86613ba5565b60005b828110156144a35784890151825560018201915060208501945060208101905061447e565b868310156144c057848901516144bc601f891682613d0d565b8355505b6001600288020188555050505b505050505050565b60006144e082612ed8565b6144ea81856139ca565b93506144fa818560208601612ef4565b80840191505092915050565b600061451282846144d5565b915081905092915050565b600061452882612e45565b915061453383612e45565b925082820390508181111561454b5761454a613aa5565b5b92915050565b6000602082019050818103600083015261456b8184613211565b905092915050565b600060408201905061458860008301856131e2565b61459560208301846131e2565b9392505050565b7f56657269666965724f7261636c653a20496e76616c696420657363726f77206160008201527f6464726573730000000000000000000000000000000000000000000000000000602082015250565b60006145f8602683613200565b91506146038261459c565b604082019050919050565b60006020820190508181036000830152614627816145eb565b9050919050565b60008151905061463d81612e4f565b92915050565b6005811061465057600080fd5b50565b60008151905061466281614643565b92915050565b6000610120828403121561467f5761467e6140b4565b5b61468a6101206135b8565b9050600061469a8482850161462e565b60008301525060206146ae8482850161462e565b60208301525060406146c284828501613ee2565b60408301525060606146d684828501613ee2565b60608301525060806146ea8482850161462e565b60808301525060a06146fe84828501614653565b60a08301525060c06147128482850161462e565b60c08301525060e06147268482850161462e565b60e08301525061010082015167ffffffffffffffff81111561474b5761474a6140b9565b5b61475784828501614100565b6101008301525092915050565b60006020828403121561477a57614779612d24565b5b600082015167ffffffffffffffff81111561479857614797612d29565b5b6147a484828501614668565b91505092915050565b7f56657269666965724f7261636c653a20457363726f77206e6f742066756e646560008201527f6400000000000000000000000000000000000000000000000000000000000000602082015250565b6000614809602183613200565b9150614814826147ad565b604082019050919050565b60006020820190508181036000830152614838816147fc565b9050919050565b7f56657269666965724f7261636c653a20436172206e6f74207665726966696564600082015250565b6000614875602083613200565b91506148808261483f565b602082019050919050565b600060208201905081810360008301526148a481614868565b9050919050565b7f5265656e7472616e637947756172643a207265656e7472616e742063616c6c00600082015250565b60006148e1601f83613200565b91506148ec826148ab565b602082019050919050565b60006020820190508181036000830152614910816148d4565b9050919050565b60006020828403121561492d5761492c612d24565b5b600061493b8482850161417f565b91505092915050565b7f416363657373436f6e74726f6c3a206163636f756e7420000000000000000000600082015250565b600061497a6017836139ca565b915061498582614944565b601782019050919050565b7f206973206d697373696e6720726f6c6520000000000000000000000000000000600082015250565b60006149c66011836139ca565b91506149d182614990565b601182019050919050565b60006149e78261496d565b91506149f382856144d5565b91506149fe826149b9565b9150614a0a82846144d5565b91508190509392505050565b6000614a2182612e45565b9150614a2c83612e45565b9250828202614a3a81612e45565b91508282048414831517614a5157614a50613aa5565b5b5092915050565b7f4e487b7100000000000000000000000000000000000000000000000000000000600052603260045260246000fd5b6000614a9282612e45565b915060008203614aa557614aa4613aa5565b5b600182039050919050565b7f537472696e67733a20686578206c656e67746820696e73756666696369656e74600082015250565b6000614ae6602083613200565b9150614af182614ab0565b602082019050919050565b60006020820190508181036000830152614b1581614ad9565b9050919050565b600080fd5b600080fd5b60008085851115614b3a57614b39614b1c565b5b83861115614b4b57614b4a614b21565b5b6001850283019150848603905094509492505050565b600082905092915050565b60007fffffffffffffffffffffffffffffffffffffffff00000000000000000000000082169050919050565b6000614ba48383614b61565b82614baf8135614b6c565b92506014821015614bef57614bea7fffffffffffffffffffffffffffffffffffffffff00000000000000000000000083601403600802613bca565b831692505b50509291505056fea26469706673582212201182eb97d3a5936fbd5d0ebb553a1a2f9d2c4290baaf6db054828f6e591f34a064736f6c63430008130033",
  "linkReferences": {},
  "deployedLinkReferences": {}
}