{
  "_format": "hh-sol-artifact-1",
  "contractName": "Roles",
  "sourceName": "contracts/Roles.sol",
  "abi": [
    {
      "inputs": [
        {
          "internalType": "address",
          "name": "trustedForwarder",
          "type": "address"
        },
        {
          "internalType": "address",
          "name": "defaultAdmin",
          "type": "address"
        },
        {
          "internalType": "address",
          "name": "verifier",
          "type": "address"
        },
        {
          "internalType": "address",
          "name": "treasury",
          "type": "address"
        }
      ],
      "stateMutability": "nonpayable",
      "type": "constructor"
    },
    {
      "anonymous": false,
      "inputs": [
        {
          "indexed": true,
          "internalType": "bytes32",
          "name": "role",
          "type": "bytes32"
        },
        {
          "indexed": true,
          "internalType": "bytes32",
          "name": "previousAdminRole",
          "type": "bytes32"
        },
        {
          "indexed": true,
          "internalType": "bytes32",
          "name": "newAdminRole",
          "type": "bytes32"
        }
      ],
      "name": "RoleAdminChanged",
      "type": "event"
    },
    {
      "anonymous": false,
      "inputs": [
        {
          "indexed": true,
          "internalType": "bytes32",
          "name": "role",
          "type": "bytes32"
        },
        {
          "indexed": true,
          "internalType": "address",
          "name": "account",
          "type": "address"
        },
        {
          "indexed": true,
          "internalType": "address",
          "name": "sender",
          "type": "address"
        }
      ],
      "name": "RoleGranted",
      "type": "event"
    },
    {
      "anonymous": false,
      "inputs": [
        {
          "indexed": true,
          "internalType": "bytes32",
          "name": "role",
          "type": "bytes32"
        },
        {
          "indexed": true,
          "internalType": "address",
          "name": "account",
          "type": "address"
        },
        {
          "indexed": true,
          "internalType": "address",
          "name": "sender",
          "type": "address"
        }
      ],
      "name": "RoleRevoked",
      "type": "event"
    },
    {
      "anonymous": false,
      "inputs": [
        {
          "indexed": true,
          "internalType": "address",
          "name": "oldForwarder",
          "type": "address"
        },
        {
          "indexed": true,
          "internalType": "address",
          "name": "newForwarder",
          "type": "address"
        }
      ],
      "name": "TrustedForwarderUpdated",
      "type": "event"
    },
    {
      "inputs": [],
      "name": "ADMIN_ROLE",
      "outputs": [
        {
          "internalType": "bytes32",
          "name": "",
          "type": "bytes32"
        }
      ],
      "stateMutability": "view",
      "type": "function"
    },
    {
      "inputs": [],
      "name": "DEFAULT_ADMIN_ROLE",
      "outputs": [
        {
          "internalType": "bytes32",
          "name": "",
          "type": "bytes32"
        }
      ],
      "stateMutability": "view",
      "type": "function"
    },
    {
      "inputs": [],
      "name": "TREASURY_ROLE",
      "outputs": [
        {
          "internalType": "bytes32",
          "name": "",
          "type": "bytes32"
        }
      ],
      "stateMutability": "view",
      "type": "function"
    },
    {
      "inputs": [],
      "name": "VERIFIER_ROLE",
      "outputs": [
        {
          "internalType": "bytes32",
          "name": "",
          "type": "bytes32"
        }
      ],
      "stateMutability": "view",
      "type": "function"
    },
    {
      "inputs": [
        {
          "internalType": "bytes32",
          "name": "role",
          "type": "bytes32"
        },
        {
          "internalType": "bytes32",
          "name": "adminRole",
          "type": "bytes32"
        },
        {
          "internalType": "string",
          "name": "description",
          "type": "string"
        }
      ],
      "name": "addRole",
      "outputs": [],
      "stateMutability": "nonpayable",
      "type": "function"
    },
    {
      "inputs": [
        {
          "internalType": "bytes32",
          "name": "role",
          "type": "bytes32"
        }
      ],
      "name": "getRoleAdmin",
      "outputs": [
        {
          "internalType": "bytes32",
          "name": "",
          "type": "bytes32"
        }
      ],
      "stateMutability": "view",
      "type": "function"
    },
    {
      "inputs": [
        {
          "internalType": "bytes32",
          "name": "role",
          "type": "bytes32"
        }
      ],
      "name": "getRoleDescription",
      "outputs": [
        {
          "internalType": "string",
          "name": "",
          "type": "string"
        }
      ],
      "stateMutability": "view",
      "type": "function"
    },
    {
      "inputs": [
        {
          "internalType": "address",
          "name": "account",
          "type": "address"
        }
      ],
      "name": "getRoles",
      "outputs": [
        {
          "internalType": "bytes32[]",
          "name": "",
          "type": "bytes32[]"
        }
      ],
      "stateMutability": "view",
      "type": "function"
    },
    {
      "inputs": [],
      "name": "getTrustedForwarder",
      "outputs": [
        {
          "internalType": "address",
          "name": "",
          "type": "address"
        }
      ],
      "stateMutability": "view",
      "type": "function"
    },
    {
      "inputs": [
        {
          "internalType": "bytes32",
          "name": "role",
          "type": "bytes32"
        },
        {
          "internalType": "address",
          "name": "account",
          "type": "address"
        }
      ],
      "name": "grantRole",
      "outputs": [],
      "stateMutability": "nonpayable",
      "type": "function"
    },
    {
      "inputs": [
        {
          "internalType": "bytes32",
          "name": "role",
          "type": "bytes32"
        },
        {
          "internalType": "address",
          "name": "account",
          "type": "address"
        }
      ],
      "name": "hasRole",
      "outputs": [
        {
          "internalType": "bool",
          "name": "",
          "type": "bool"
        }
      ],
      "stateMutability": "view",
      "type": "function"
    },
    {
      "inputs": [
        {
          "internalType": "address",
          "name": "forwarder",
          "type": "address"
        }
      ],
      "name": "isTrustedForwarder",
      "outputs": [
        {
          "internalType": "bool",
          "name": "",
          "type": "bool"
        }
      ],
      "stateMutability": "view",
      "type": "function"
    },
    {
      "inputs": [
        {
          "internalType": "bytes32",
          "name": "role",
          "type": "bytes32"
        },
        {
          "internalType": "address",
          "name": "account",
          "type": "address"
        }
      ],
      "name": "renounceRole",
      "outputs": [],
      "stateMutability": "nonpayable",
      "type": "function"
    },
    {
      "inputs": [
        {
          "internalType": "bytes32",
          "name": "role",
          "type": "bytes32"
        },
        {
          "internalType": "address",
          "name": "account",
          "type": "address"
        }
      ],
      "name": "revokeRole",
      "outputs": [],
      "stateMutability": "nonpayable",
      "type": "function"
    },
    {
      "inputs": [
        {
          "internalType": "bytes32",
          "name": "",
          "type": "bytes32"
        }
      ],
      "name": "roleDescriptions",
      "outputs": [
        {
          "internalType": "string",
          "name": "",
          "type": "string"
        }
      ],
      "stateMutability": "view",
      "type": "function"
    },
    {
      "inputs": [
        {
          "internalType": "bytes4",
          "name": "interfaceId",
          "type": "bytes4"
        }
      ],
      "name": "supportsInterface",
      "outputs": [
        {
          "internalType": "bool",
          "name": "",
          "type": "bool"
        }
      ],
      "stateMutability": "view",
      "type": "function"
    },
    {
      "inputs": [],
      "name": "trustedForwarderAddress",
      "outputs": [
        {
          "internalType": "address",
          "name": "",
          "type": "address"
        }
      ],
      "stateMutability": "view",
      "type": "function"
    }
  ],
  "bytecode": "0x60a06040523480156200001157600080fd5b506040516200292f3803806200292f8339818101604052810190620000379190620006d2565b83808073ffffffffffffffffffffffffffffffffffffffff1660808173ffffffffffffffffffffffffffffffffffffffff16815250505080600160006101000a81548173ffffffffffffffffffffffffffffffffffffffff021916908373ffffffffffffffffffffffffffffffffffffffff16021790555050620000c56000801b846200039460201b60201c565b620000f77fa49807205ce4d355092ef5a8a18f56e8913cf4a201fbe287825b095693c21775846200039460201b60201c565b600073ffffffffffffffffffffffffffffffffffffffff168273ffffffffffffffffffffffffffffffffffffffff16146200015f576200015e7f0ce23c3e399818cfee81a7ab0880f714e53d7672b08df0fa62f2843416e1ea09836200039460201b60201c565b5b600073ffffffffffffffffffffffffffffffffffffffff168173ffffffffffffffffffffffffffffffffffffffff1614620001c757620001c67fe1dcbdb91df27212a29bc27177c840cf2f819ecf2187432e1fac86c2dd5dfca9826200039460201b60201c565b5b6040518060400160405280601281526020017f44656661756c742041646d696e20526f6c650000000000000000000000000000815250600260008060001b81526020019081526020016000209081620002219190620009be565b506040518060400160405280601681526020017f506c6174666f726d2041646d696e6973747261746f7200000000000000000000815250600260007fa49807205ce4d355092ef5a8a18f56e8913cf4a201fbe287825b095693c2177581526020019081526020016000209081620002999190620009be565b506040518060400160405280601a81526020017f43617220566572696669636174696f6e20417574686f72697479000000000000815250600260007f0ce23c3e399818cfee81a7ab0880f714e53d7672b08df0fa62f2843416e1ea0981526020019081526020016000209081620003119190620009be565b506040518060400160405280601081526020017f5472656173757279204d616e6167657200000000000000000000000000000000815250600260007fe1dcbdb91df27212a29bc27177c840cf2f819ecf2187432e1fac86c2dd5dfca981526020019081526020016000209081620003899190620009be565b505050505062000bf7565b620003a682826200048560201b60201c565b6200048157600160008084815260200190815260200160002060000160008373ffffffffffffffffffffffffffffffffffffffff1673ffffffffffffffffffffffffffffffffffffffff16815260200190815260200160002060006101000a81548160ff02191690831515021790555062000426620004a160201b60201c565b73ffffffffffffffffffffffffffffffffffffffff168173ffffffffffffffffffffffffffffffffffffffff16837f2f8788117e7eff1d82e926ec794901d17c78024a50270940304540a733656f0d60405160405180910390a45b5050565b6000620004998383620004b860201b60201c565b905092915050565b6000620004b36200052260201b60201c565b905090565b600080600084815260200190815260200160002060000160008373ffffffffffffffffffffffffffffffffffffffff1673ffffffffffffffffffffffffffffffffffffffff16815260200190815260200160002060009054906101000a900460ff16905092915050565b6000620005346200053960201b60201c565b905090565b60008060003690509050600062000555620005cf60201b60201c565b90506200056833620005e660201b60201c565b8015620005755750808210155b15620005b75760003682846200058c919062000ad4565b9080926200059d9392919062000b19565b90620005aa919062000b91565b60601c92505050620005cc565b620005c76200064060201b60201c565b925050505b90565b6000620005e16200064860201b60201c565b905090565b6000600160009054906101000a900473ffffffffffffffffffffffffffffffffffffffff1673ffffffffffffffffffffffffffffffffffffffff168273ffffffffffffffffffffffffffffffffffffffff16149050919050565b600033905090565b60006200065a6200065f60201b60201c565b905090565b60006014905090565b600080fd5b600073ffffffffffffffffffffffffffffffffffffffff82169050919050565b60006200069a826200066d565b9050919050565b620006ac816200068d565b8114620006b857600080fd5b50565b600081519050620006cc81620006a1565b92915050565b60008060008060808587031215620006ef57620006ee62000668565b5b6000620006ff87828801620006bb565b94505060206200071287828801620006bb565b93505060406200072587828801620006bb565b92505060606200073887828801620006bb565b91505092959194509250565b600081519050919050565b7f4e487b7100000000000000000000000000000000000000000000000000000000600052604160045260246000fd5b7f4e487b7100000000000000000000000000000000000000000000000000000000600052602260045260246000fd5b60006002820490506001821680620007c657607f821691505b602082108103620007dc57620007db6200077e565b5b50919050565b60008190508160005260206000209050919050565b60006020601f8301049050919050565b600082821b905092915050565b600060088302620008467fffffffffffffffffffffffffffffffffffffffffffffffffffffffffffffffff8262000807565b62000852868362000807565b95508019841693508086168417925050509392505050565b6000819050919050565b6000819050919050565b60006200089f6200089962000893846200086a565b62000874565b6200086a565b9050919050565b6000819050919050565b620008bb836200087e565b620008d3620008ca82620008a6565b84845462000814565b825550505050565b600090565b620008ea620008db565b620008f7818484620008b0565b505050565b5b818110156200091f5762000913600082620008e0565b600181019050620008fd565b5050565b601f8211156200096e576200093881620007e2565b6200094384620007f7565b8101602085101562000953578190505b6200096b6200096285620007f7565b830182620008fc565b50505b505050565b600082821c905092915050565b6000620009936000198460080262000973565b1980831691505092915050565b6000620009ae838362000980565b9150826002028217905092915050565b620009c98262000744565b67ffffffffffffffff811115620009e557620009e46200074f565b5b620009f18254620007ad565b620009fe82828562000923565b600060209050601f83116001811462000a36576000841562000a21578287015190505b62000a2d8582620009a0565b86555062000a9d565b601f19841662000a4686620007e2565b60005b8281101562000a705784890151825560018201915060208501945060208101905062000a49565b8683101562000a90578489015162000a8c601f89168262000980565b8355505b6001600288020188555050505b505050505050565b7f4e487b7100000000000000000000000000000000000000000000000000000000600052601160045260246000fd5b600062000ae1826200086a565b915062000aee836200086a565b925082820390508181111562000b095762000b0862000aa5565b5b92915050565b600080fd5b600080fd5b6000808585111562000b305762000b2f62000b0f565b5b8386111562000b445762000b4362000b14565b5b6001850283019150848603905094509492505050565b600082905092915050565b60007fffffffffffffffffffffffffffffffffffffffff00000000000000000000000082169050919050565b600062000b9f838362000b5a565b8262000bac813562000b65565b9250601482101562000bef5762000bea7fffffffffffffffffffffffffffffffffffffffff0000000000000000000000008360140360080262000807565b831692505b505092915050565b608051611d1f62000c1060003960005050611d1f6000f3fe608060405234801561001057600080fd5b506004361061010b5760003560e01c806391d14854116100a2578063ce1b815f11610071578063ce1b815f146102de578063ce6ccfaf146102fc578063d11a57ec1461032c578063d547741f1461034a578063e7705db6146103665761010b565b806391d1485414610230578063a217fddf14610260578063a4defec71461027e578063c7d729ad146102ae5761010b565b80635200b1d8116100de5780635200b1d8146101a8578063572b6c05146101c457806375b238fc146101f457806386f0423e146102125761010b565b806301ffc9a714610110578063248a9ca3146101405780632f2ff15d1461017057806336568abe1461018c575b600080fd5b61012a60048036038101906101259190611063565b610384565b60405161013791906110ab565b60405180910390f35b61015a600480360381019061015591906110fc565b610396565b6040516101679190611138565b60405180910390f35b61018a600480360381019061018591906111b1565b6103b5565b005b6101a660048036038101906101a191906111b1565b610438565b005b6101c260048036038101906101bd9190611256565b6104bb565b005b6101de60048036038101906101d991906112ca565b610587565b6040516101eb91906110ab565b60405180910390f35b6101fc6105e1565b6040516102099190611138565b60405180910390f35b61021a610605565b6040516102279190611306565b60405180910390f35b61024a600480360381019061024591906111b1565b61062b565b60405161025791906110ab565b60405180910390f35b61026861063f565b6040516102759190611138565b60405180910390f35b610298600480360381019061029391906110fc565b610646565b6040516102a591906113b1565b60405180910390f35b6102c860048036038101906102c391906110fc565b6106e6565b6040516102d591906113b1565b60405180910390f35b6102e661078b565b6040516102f39190611306565b60405180910390f35b610316600480360381019061031191906112ca565b6107b5565b6040516103239190611491565b60405180910390f35b610334610808565b6040516103419190611138565b60405180910390f35b610364600480360381019061035f91906111b1565b61082c565b005b61036e6108af565b60405161037b9190611138565b60405180910390f35b600061038f826108d3565b9050919050565b6000806000838152602001908152602001600020600101549050919050565b6103be82610396565b6103c78161094d565b6103d18383610961565b6103d9610a41565b73ffffffffffffffffffffffffffffffffffffffff168273ffffffffffffffffffffffffffffffffffffffff16847f2f8788117e7eff1d82e926ec794901d17c78024a50270940304540a733656f0d60405160405180910390a4505050565b610440610a41565b73ffffffffffffffffffffffffffffffffffffffff168173ffffffffffffffffffffffffffffffffffffffff16146104ad576040517f08c379a00000000000000000000000000000000000000000000000000000000081526004016104a490611525565b60405180910390fd5b6104b78282610a50565b5050565b6000801b6104c88161094d565b6000801b840361050d576040517f08c379a000000000000000000000000000000000000000000000000000000000815260040161050490611591565b60405180910390fd5b60008383905011610553576040517f08c379a000000000000000000000000000000000000000000000000000000000815260040161054a90611623565b60405180910390fd5b61055d8585610b31565b828260026000888152602001908152602001600020918261057f929190611893565b505050505050565b6000600160009054906101000a900473ffffffffffffffffffffffffffffffffffffffff1673ffffffffffffffffffffffffffffffffffffffff168273ffffffffffffffffffffffffffffffffffffffff16149050919050565b7fa49807205ce4d355092ef5a8a18f56e8913cf4a201fbe287825b095693c2177581565b600160009054906101000a900473ffffffffffffffffffffffffffffffffffffffff1681565b60006106378383610b8c565b905092915050565b6000801b81565b60026020528060005260406000206000915090508054610665906116ac565b80601f0160208091040260200160405190810160405280929190818152602001828054610691906116ac565b80156106de5780601f106106b3576101008083540402835291602001916106de565b820191906000526020600020905b8154815290600101906020018083116106c157829003601f168201915b505050505081565b6060600260008381526020019081526020016000208054610706906116ac565b80601f0160208091040260200160405190810160405280929190818152602001828054610732906116ac565b801561077f5780601f106107545761010080835404028352916020019161077f565b820191906000526020600020905b81548152906001019060200180831161076257829003601f168201915b50505050509050919050565b6000600160009054906101000a900473ffffffffffffffffffffffffffffffffffffffff16905090565b6060600067ffffffffffffffff8111156107d2576107d161164e565b5b6040519080825280602002602001820160405280156108005781602001602082028036833780820191505090505b509050919050565b7fe1dcbdb91df27212a29bc27177c840cf2f819ecf2187432e1fac86c2dd5dfca981565b61083582610396565b61083e8161094d565b6108488383610a50565b610850610a41565b73ffffffffffffffffffffffffffffffffffffffff168273ffffffffffffffffffffffffffffffffffffffff16847ff6391f5c32d9c69d2a47ea670b442974b53935d1edc7fd64eb21e047a839171b60405160405180910390a4505050565b7f0ce23c3e399818cfee81a7ab0880f714e53d7672b08df0fa62f2843416e1ea0981565b60007f7965db0b000000000000000000000000000000000000000000000000000000007bffffffffffffffffffffffffffffffffffffffffffffffffffffffff1916827bffffffffffffffffffffffffffffffffffffffffffffffffffffffff19161480610946575061094582610bf6565b5b9050919050565b61095e81610959610a41565b610c60565b50565b61096b828261062b565b610a3d57600160008084815260200190815260200160002060000160008373ffffffffffffffffffffffffffffffffffffffff1673ffffffffffffffffffffffffffffffffffffffff16815260200190815260200160002060006101000a81548160ff0219169083151502179055506109e2610a41565b73ffffffffffffffffffffffffffffffffffffffff168173ffffffffffffffffffffffffffffffffffffffff16837f2f8788117e7eff1d82e926ec794901d17c78024a50270940304540a733656f0d60405160405180910390a45b5050565b6000610a4b610ce5565b905090565b610a5a828261062b565b15610b2d57600080600084815260200190815260200160002060000160008373ffffffffffffffffffffffffffffffffffffffff1673ffffffffffffffffffffffffffffffffffffffff16815260200190815260200160002060006101000a81548160ff021916908315150217905550610ad2610a41565b73ffffffffffffffffffffffffffffffffffffffff168173ffffffffffffffffffffffffffffffffffffffff16837ff6391f5c32d9c69d2a47ea670b442974b53935d1edc7fd64eb21e047a839171b60405160405180910390a45b5050565b6000610b3c83610396565b905081600080858152602001908152602001600020600101819055508181847fbd79b86ffe0ab8e8776151514217cd7cacd52c909f66475c3af44e129f0b00ff60405160405180910390a4505050565b600080600084815260200190815260200160002060000160008373ffffffffffffffffffffffffffffffffffffffff1673ffffffffffffffffffffffffffffffffffffffff16815260200190815260200160002060009054906101000a900460ff16905092915050565b60007f01ffc9a7000000000000000000000000000000000000000000000000000000007bffffffffffffffffffffffffffffffffffffffffffffffffffffffff1916827bffffffffffffffffffffffffffffffffffffffffffffffffffffffff1916149050919050565b610c6a828261062b565b610ce157610c7781610cf4565b610c858360001c6020610d21565b604051602001610c96929190611a37565b6040516020818303038152906040526040517f08c379a0000000000000000000000000000000000000000000000000000000008152600401610cd891906113b1565b60405180910390fd5b5050565b6000610cef610f5d565b905090565b6060610d1a8273ffffffffffffffffffffffffffffffffffffffff16601460ff16610d21565b9050919050565b606060006002836002610d349190611aa0565b610d3e9190611ae2565b67ffffffffffffffff811115610d5757610d5661164e565b5b6040519080825280601f01601f191660200182016040528015610d895781602001600182028036833780820191505090505b5090507f300000000000000000000000000000000000000000000000000000000000000081600081518110610dc157610dc0611b16565b5b60200101907effffffffffffffffffffffffffffffffffffffffffffffffffffffffffffff1916908160001a9053507f780000000000000000000000000000000000000000000000000000000000000081600181518110610e2557610e24611b16565b5b60200101907effffffffffffffffffffffffffffffffffffffffffffffffffffffffffffff1916908160001a90535060006001846002610e659190611aa0565b610e6f9190611ae2565b90505b6001811115610f0f577f3031323334353637383961626364656600000000000000000000000000000000600f861660108110610eb157610eb0611b16565b5b1a60f81b828281518110610ec857610ec7611b16565b5b60200101907effffffffffffffffffffffffffffffffffffffffffffffffffffffffffffff1916908160001a905350600485901c945080610f0890611b45565b9050610e72565b5060008414610f53576040517f08c379a0000000000000000000000000000000000000000000000000000000008152600401610f4a90611bba565b60405180910390fd5b8091505092915050565b600080600036905090506000610f71610fd2565b9050610f7c33610587565b8015610f885750808210155b15610fc2576000368284610f9c9190611bda565b908092610fab93929190611c18565b90610fb69190611c8a565b60601c92505050610fcf565b610fca610fe1565b925050505b90565b6000610fdc610fe9565b905090565b600033905090565b6000610ff3610ff8565b905090565b60006014905090565b600080fd5b600080fd5b60007fffffffff0000000000000000000000000000000000000000000000000000000082169050919050565b6110408161100b565b811461104b57600080fd5b50565b60008135905061105d81611037565b92915050565b60006020828403121561107957611078611001565b5b60006110878482850161104e565b91505092915050565b60008115159050919050565b6110a581611090565b82525050565b60006020820190506110c0600083018461109c565b92915050565b6000819050919050565b6110d9816110c6565b81146110e457600080fd5b50565b6000813590506110f6816110d0565b92915050565b60006020828403121561111257611111611001565b5b6000611120848285016110e7565b91505092915050565b611132816110c6565b82525050565b600060208201905061114d6000830184611129565b92915050565b600073ffffffffffffffffffffffffffffffffffffffff82169050919050565b600061117e82611153565b9050919050565b61118e81611173565b811461119957600080fd5b50565b6000813590506111ab81611185565b92915050565b600080604083850312156111c8576111c7611001565b5b60006111d6858286016110e7565b92505060206111e78582860161119c565b9150509250929050565b600080fd5b600080fd5b600080fd5b60008083601f840112611216576112156111f1565b5b8235905067ffffffffffffffff811115611233576112326111f6565b5b60208301915083600182028301111561124f5761124e6111fb565b5b9250929050565b600080600080606085870312156112705761126f611001565b5b600061127e878288016110e7565b945050602061128f878288016110e7565b935050604085013567ffffffffffffffff8111156112b0576112af611006565b5b6112bc87828801611200565b925092505092959194509250565b6000602082840312156112e0576112df611001565b5b60006112ee8482850161119c565b91505092915050565b61130081611173565b82525050565b600060208201905061131b60008301846112f7565b92915050565b600081519050919050565b600082825260208201905092915050565b60005b8381101561135b578082015181840152602081019050611340565b60008484015250505050565b6000601f19601f8301169050919050565b600061138382611321565b61138d818561132c565b935061139d81856020860161133d565b6113a681611367565b840191505092915050565b600060208201905081810360008301526113cb8184611378565b905092915050565b600081519050919050565b600082825260208201905092915050565b6000819050602082019050919050565b611408816110c6565b82525050565b600061141a83836113ff565b60208301905092915050565b6000602082019050919050565b600061143e826113d3565b61144881856113de565b9350611453836113ef565b8060005b8381101561148457815161146b888261140e565b975061147683611426565b925050600181019050611457565b5085935050505092915050565b600060208201905081810360008301526114ab8184611433565b905092915050565b7f416363657373436f6e74726f6c3a2063616e206f6e6c792072656e6f756e636560008201527f20726f6c657320666f722073656c660000000000000000000000000000000000602082015250565b600061150f602f8361132c565b915061151a826114b3565b604082019050919050565b6000602082019050818103600083015261153e81611502565b9050919050565b7f526f6c65733a2041646d696e20726f6c652063616e6e6f74206265207a65726f600082015250565b600061157b60208361132c565b915061158682611545565b602082019050919050565b600060208201905081810360008301526115aa8161156e565b9050919050565b7f526f6c65733a204465736372697074696f6e2063616e6e6f7420626520656d7060008201527f7479000000000000000000000000000000000000000000000000000000000000602082015250565b600061160d60228361132c565b9150611618826115b1565b604082019050919050565b6000602082019050818103600083015261163c81611600565b9050919050565b600082905092915050565b7f4e487b7100000000000000000000000000000000000000000000000000000000600052604160045260246000fd5b7f4e487b7100000000000000000000000000000000000000000000000000000000600052602260045260246000fd5b600060028204905060018216806116c457607f821691505b6020821081036116d7576116d661167d565b5b50919050565b60008190508160005260206000209050919050565b60006020601f8301049050919050565b600082821b905092915050565b60006008830261173f7fffffffffffffffffffffffffffffffffffffffffffffffffffffffffffffffff82611702565b6117498683611702565b95508019841693508086168417925050509392505050565b6000819050919050565b6000819050919050565b600061179061178b61178684611761565b61176b565b611761565b9050919050565b6000819050919050565b6117aa83611775565b6117be6117b682611797565b84845461170f565b825550505050565b600090565b6117d36117c6565b6117de8184846117a1565b505050565b5b81811015611802576117f76000826117cb565b6001810190506117e4565b5050565b601f82111561184757611818816116dd565b611821846116f2565b81016020851015611830578190505b61184461183c856116f2565b8301826117e3565b50505b505050565b600082821c905092915050565b600061186a6000198460080261184c565b1980831691505092915050565b60006118838383611859565b9150826002028217905092915050565b61189d8383611643565b67ffffffffffffffff8111156118b6576118b561164e565b5b6118c082546116ac565b6118cb828285611806565b6000601f8311600181146118fa57600084156118e8578287013590505b6118f28582611877565b86555061195a565b601f198416611908866116dd565b60005b828110156119305784890135825560018201915060208501945060208101905061190b565b8683101561194d5784890135611949601f891682611859565b8355505b6001600288020188555050505b50505050505050565b600081905092915050565b7f416363657373436f6e74726f6c3a206163636f756e7420000000000000000000600082015250565b60006119a4601783611963565b91506119af8261196e565b601782019050919050565b60006119c582611321565b6119cf8185611963565b93506119df81856020860161133d565b80840191505092915050565b7f206973206d697373696e6720726f6c6520000000000000000000000000000000600082015250565b6000611a21601183611963565b9150611a2c826119eb565b601182019050919050565b6000611a4282611997565b9150611a4e82856119ba565b9150611a5982611a14565b9150611a6582846119ba565b91508190509392505050565b7f4e487b7100000000000000000000000000000000000000000000000000000000600052601160045260246000fd5b6000611aab82611761565b9150611ab683611761565b9250828202611ac481611761565b91508282048414831517611adb57611ada611a71565b5b5092915050565b6000611aed82611761565b9150611af883611761565b9250828201905080821115611b1057611b0f611a71565b5b92915050565b7f4e487b7100000000000000000000000000000000000000000000000000000000600052603260045260246000fd5b6000611b5082611761565b915060008203611b6357611b62611a71565b5b600182039050919050565b7f537472696e67733a20686578206c656e67746820696e73756666696369656e74600082015250565b6000611ba460208361132c565b9150611baf82611b6e565b602082019050919050565b60006020820190508181036000830152611bd381611b97565b9050919050565b6000611be582611761565b9150611bf083611761565b9250828203905081811115611c0857611c07611a71565b5b92915050565b600080fd5b600080fd5b60008085851115611c2c57611c2b611c0e565b5b83861115611c3d57611c3c611c13565b5b6001850283019150848603905094509492505050565b600082905092915050565b60007fffffffffffffffffffffffffffffffffffffffff00000000000000000000000082169050919050565b6000611c968383611c53565b82611ca18135611c5e565b92506014821015611ce157611cdc7fffffffffffffffffffffffffffffffffffffffff00000000000000000000000083601403600802611702565b831692505b50509291505056fea2646970667358221220c0f34f429739eebb1983e988ef512503b17318b5fb3f3df0ccd68d084d1e346964736f6c63430008130033",
  "linkReferences": {},
  "deployedLinkReferences": {}
}